{
  "_format": "hh-sol-artifact-1",
  "contractName": "DvisionStakingUpgradeable",
  "sourceName": "contracts/DvisionStakingUpgradeable.sol",
  "abi": [
    {
      "anonymous": false,
      "inputs": [
        {
          "indexed": false,
          "internalType": "uint8",
          "name": "campaignId",
          "type": "uint8"
        },
        {
          "indexed": false,
          "internalType": "bool",
          "name": "allow",
          "type": "bool"
        }
      ],
      "name": "AllowedCampaignWithdraw",
      "type": "event"
    },
    {
      "anonymous": false,
      "inputs": [
        {
          "indexed": false,
          "internalType": "bool",
          "name": "allow",
          "type": "bool"
        }
      ],
      "name": "AllowedWithdrawAll",
      "type": "event"
    },
    {
      "anonymous": false,
      "inputs": [
        {
          "indexed": true,
          "internalType": "address",
          "name": "user",
          "type": "address"
        },
        {
          "indexed": true,
          "internalType": "uint8",
          "name": "campaignId",
          "type": "uint8"
        },
        {
          "indexed": false,
          "internalType": "uint256",
          "name": "amount",
          "type": "uint256"
        }
      ],
      "name": "ClaimedReward",
      "type": "event"
    },
    {
      "anonymous": false,
      "inputs": [
        {
          "indexed": true,
          "internalType": "address",
          "name": "user",
          "type": "address"
        },
        {
          "indexed": true,
          "internalType": "uint8",
          "name": "campaignId",
          "type": "uint8"
        },
        {
          "indexed": false,
          "internalType": "uint256",
          "name": "tokenId",
          "type": "uint256"
        },
        {
          "indexed": false,
          "internalType": "uint256",
          "name": "amount",
          "type": "uint256"
        },
        {
          "indexed": false,
          "internalType": "bool",
          "name": "isERC1155",
          "type": "bool"
        }
      ],
      "name": "Deposited",
      "type": "event"
    },
    {
      "anonymous": false,
      "inputs": [
        {
          "indexed": true,
          "internalType": "uint8",
          "name": "campaignId",
          "type": "uint8"
        },
        {
          "indexed": false,
          "internalType": "uint256",
          "name": "reward",
          "type": "uint256"
        }
      ],
      "name": "RewardAdded",
      "type": "event"
    },
    {
      "anonymous": false,
      "inputs": [
        {
          "indexed": true,
          "internalType": "bytes32",
          "name": "role",
          "type": "bytes32"
        },
        {
          "indexed": true,
          "internalType": "bytes32",
          "name": "previousAdminRole",
          "type": "bytes32"
        },
        {
          "indexed": true,
          "internalType": "bytes32",
          "name": "newAdminRole",
          "type": "bytes32"
        }
      ],
      "name": "RoleAdminChanged",
      "type": "event"
    },
    {
      "anonymous": false,
      "inputs": [
        {
          "indexed": true,
          "internalType": "bytes32",
          "name": "role",
          "type": "bytes32"
        },
        {
          "indexed": true,
          "internalType": "address",
          "name": "account",
          "type": "address"
        },
        {
          "indexed": true,
          "internalType": "address",
          "name": "sender",
          "type": "address"
        }
      ],
      "name": "RoleGranted",
      "type": "event"
    },
    {
      "anonymous": false,
      "inputs": [
        {
          "indexed": true,
          "internalType": "bytes32",
          "name": "role",
          "type": "bytes32"
        },
        {
          "indexed": true,
          "internalType": "address",
          "name": "account",
          "type": "address"
        },
        {
          "indexed": true,
          "internalType": "address",
          "name": "sender",
          "type": "address"
        }
      ],
      "name": "RoleRevoked",
      "type": "event"
    },
    {
      "anonymous": false,
      "inputs": [
        {
          "indexed": true,
          "internalType": "address",
          "name": "user",
          "type": "address"
        },
        {
          "indexed": true,
          "internalType": "uint8",
          "name": "campaignId",
          "type": "uint8"
        },
        {
          "indexed": false,
          "internalType": "uint256",
          "name": "tokenId",
          "type": "uint256"
        },
        {
          "indexed": false,
          "internalType": "uint256",
          "name": "amount",
          "type": "uint256"
        },
        {
          "indexed": false,
          "internalType": "bool",
          "name": "isERC1155",
          "type": "bool"
        }
      ],
      "name": "Withdrawn",
      "type": "event"
    },
    {
      "inputs": [],
      "name": "DEFAULT_ADMIN_ROLE",
      "outputs": [
        {
          "internalType": "bytes32",
          "name": "",
          "type": "bytes32"
        }
      ],
      "stateMutability": "view",
      "type": "function"
    },
    {
      "inputs": [],
      "name": "allowWithdrawAll",
      "outputs": [
        {
          "internalType": "bool",
          "name": "",
          "type": "bool"
        }
      ],
      "stateMutability": "view",
      "type": "function"
    },
    {
      "inputs": [
        {
          "internalType": "uint8",
          "name": "",
          "type": "uint8"
        }
      ],
      "name": "campaignInfo",
      "outputs": [
        {
          "internalType": "uint256",
          "name": "duration",
          "type": "uint256"
        },
        {
          "internalType": "uint256",
          "name": "timestampFinish",
          "type": "uint256"
        },
        {
          "internalType": "uint256",
          "name": "rewardRate",
          "type": "uint256"
        },
        {
          "internalType": "uint256",
          "name": "rewardPerTokenStored",
          "type": "uint256"
        },
        {
          "internalType": "uint256",
          "name": "lastUpdateTime",
          "type": "uint256"
        },
        {
          "internalType": "bool",
          "name": "allowWithdraw",
          "type": "bool"
        }
      ],
      "stateMutability": "view",
      "type": "function"
    },
    {
      "inputs": [
        {
          "internalType": "uint8",
          "name": "campaignId",
          "type": "uint8"
        }
      ],
      "name": "claimReward",
      "outputs": [],
      "stateMutability": "nonpayable",
      "type": "function"
    },
    {
      "inputs": [
        {
          "internalType": "uint8",
          "name": "campaignId",
          "type": "uint8"
        },
        {
          "components": [
            {
              "internalType": "uint256[]",
              "name": "erc721TokenIds",
              "type": "uint256[]"
            },
            {
              "internalType": "uint256[]",
              "name": "erc1155TokenIds",
              "type": "uint256[]"
            },
            {
              "internalType": "uint256[]",
              "name": "erc1155Amounts",
              "type": "uint256[]"
            }
          ],
          "internalType": "struct DvisionStakingUpgradeable.Params",
          "name": "params",
          "type": "tuple"
        }
      ],
      "name": "deposit",
      "outputs": [],
      "stateMutability": "nonpayable",
      "type": "function"
    },
    {
      "inputs": [],
      "name": "erc1155Token",
      "outputs": [
        {
          "internalType": "contract IERC1155Upgradeable",
          "name": "",
          "type": "address"
        }
      ],
      "stateMutability": "view",
      "type": "function"
    },
    {
      "inputs": [],
      "name": "erc721Token",
      "outputs": [
        {
          "internalType": "contract IERC721Upgradeable",
          "name": "",
          "type": "address"
        }
      ],
      "stateMutability": "view",
      "type": "function"
    },
    {
      "inputs": [
        {
          "internalType": "uint8",
          "name": "campaignId",
          "type": "uint8"
        },
        {
          "internalType": "address",
          "name": "account",
          "type": "address"
        }
      ],
      "name": "getCampaignEarned",
      "outputs": [
        {
          "internalType": "uint256",
          "name": "",
          "type": "uint256"
        }
      ],
      "stateMutability": "view",
      "type": "function"
    },
    {
      "inputs": [
        {
          "internalType": "bytes32",
          "name": "role",
          "type": "bytes32"
        }
      ],
      "name": "getRoleAdmin",
      "outputs": [
        {
          "internalType": "bytes32",
          "name": "",
          "type": "bytes32"
        }
      ],
      "stateMutability": "view",
      "type": "function"
    },
    {
      "inputs": [
        {
          "internalType": "bytes32",
          "name": "role",
          "type": "bytes32"
        },
        {
          "internalType": "address",
          "name": "account",
          "type": "address"
        }
      ],
      "name": "grantRole",
      "outputs": [],
      "stateMutability": "nonpayable",
      "type": "function"
    },
    {
      "inputs": [
        {
          "internalType": "bytes32",
          "name": "role",
          "type": "bytes32"
        },
        {
          "internalType": "address",
          "name": "account",
          "type": "address"
        }
      ],
      "name": "hasRole",
      "outputs": [
        {
          "internalType": "bool",
          "name": "",
          "type": "bool"
        }
      ],
      "stateMutability": "view",
      "type": "function"
    },
    {
      "inputs": [
        {
          "internalType": "address",
          "name": "_rewardsDistribution",
          "type": "address"
        },
        {
          "internalType": "address",
          "name": "_erc721Token",
          "type": "address"
        },
        {
          "internalType": "address",
          "name": "_erc1155Token",
          "type": "address"
        }
      ],
      "name": "initialize",
      "outputs": [],
      "stateMutability": "nonpayable",
      "type": "function"
    },
    {
      "inputs": [
        {
          "internalType": "uint8",
          "name": "campaignId",
          "type": "uint8"
        }
      ],
      "name": "lastTimeRewardApplicable",
      "outputs": [
        {
          "internalType": "uint256",
          "name": "",
          "type": "uint256"
        }
      ],
      "stateMutability": "view",
      "type": "function"
    },
    {
      "inputs": [
        {
          "internalType": "uint8[]",
          "name": "campaignIds",
          "type": "uint8[]"
        },
        {
          "internalType": "uint256[]",
          "name": "amounts",
          "type": "uint256[]"
        }
      ],
      "name": "notifyRewardAmount",
      "outputs": [],
      "stateMutability": "nonpayable",
      "type": "function"
    },
    {
      "inputs": [
        {
          "internalType": "address",
          "name": "",
          "type": "address"
        },
        {
          "internalType": "address",
          "name": "",
          "type": "address"
        },
        {
          "internalType": "uint256[]",
          "name": "",
          "type": "uint256[]"
        },
        {
          "internalType": "uint256[]",
          "name": "",
          "type": "uint256[]"
        },
        {
          "internalType": "bytes",
          "name": "",
          "type": "bytes"
        }
      ],
      "name": "onERC1155BatchReceived",
      "outputs": [
        {
          "internalType": "bytes4",
          "name": "",
          "type": "bytes4"
        }
      ],
      "stateMutability": "nonpayable",
      "type": "function"
    },
    {
      "inputs": [
        {
          "internalType": "address",
          "name": "",
          "type": "address"
        },
        {
          "internalType": "address",
          "name": "",
          "type": "address"
        },
        {
          "internalType": "uint256",
          "name": "",
          "type": "uint256"
        },
        {
          "internalType": "uint256",
          "name": "",
          "type": "uint256"
        },
        {
          "internalType": "bytes",
          "name": "",
          "type": "bytes"
        }
      ],
      "name": "onERC1155Received",
      "outputs": [
        {
          "internalType": "bytes4",
          "name": "",
          "type": "bytes4"
        }
      ],
      "stateMutability": "nonpayable",
      "type": "function"
    },
    {
      "inputs": [
        {
          "internalType": "address",
          "name": "",
          "type": "address"
        },
        {
          "internalType": "address",
          "name": "",
          "type": "address"
        },
        {
          "internalType": "uint256",
          "name": "",
          "type": "uint256"
        },
        {
          "internalType": "bytes",
          "name": "",
          "type": "bytes"
        }
      ],
      "name": "onERC721Received",
      "outputs": [
        {
          "internalType": "bytes4",
          "name": "",
          "type": "bytes4"
        }
      ],
      "stateMutability": "nonpayable",
      "type": "function"
    },
    {
      "inputs": [
        {
          "internalType": "bytes32",
          "name": "role",
          "type": "bytes32"
        },
        {
          "internalType": "address",
          "name": "account",
          "type": "address"
        }
      ],
      "name": "renounceRole",
      "outputs": [],
      "stateMutability": "nonpayable",
      "type": "function"
    },
    {
      "inputs": [
        {
          "internalType": "bytes32",
          "name": "role",
          "type": "bytes32"
        },
        {
          "internalType": "address",
          "name": "account",
          "type": "address"
        }
      ],
      "name": "revokeRole",
      "outputs": [],
      "stateMutability": "nonpayable",
      "type": "function"
    },
    {
      "inputs": [
        {
          "internalType": "uint8",
          "name": "campaignId",
          "type": "uint8"
        }
      ],
      "name": "rewardPerToken",
      "outputs": [
        {
          "internalType": "uint256",
          "name": "",
          "type": "uint256"
        }
      ],
      "stateMutability": "view",
      "type": "function"
    },
    {
      "inputs": [
        {
          "internalType": "uint8",
          "name": "",
          "type": "uint8"
        },
        {
          "internalType": "address",
          "name": "",
          "type": "address"
        }
      ],
      "name": "rewards",
      "outputs": [
        {
          "internalType": "uint256",
          "name": "",
          "type": "uint256"
        }
      ],
      "stateMutability": "view",
      "type": "function"
    },
    {
      "inputs": [],
      "name": "rewardsDistribution",
      "outputs": [
        {
          "internalType": "address",
          "name": "",
          "type": "address"
        }
      ],
      "stateMutability": "view",
      "type": "function"
    },
    {
      "inputs": [
        {
          "internalType": "bool",
          "name": "_allownWithdrawAll",
          "type": "bool"
        },
        {
          "internalType": "uint8[]",
          "name": "_campaigns",
          "type": "uint8[]"
        },
        {
          "internalType": "bool[]",
          "name": "_isAllowWithdraw",
          "type": "bool[]"
        }
      ],
      "name": "setAllowWithdraw",
      "outputs": [],
      "stateMutability": "nonpayable",
      "type": "function"
    },
    {
      "inputs": [
        {
          "internalType": "uint8[]",
          "name": "campaignIds",
          "type": "uint8[]"
        },
        {
          "internalType": "uint256[]",
          "name": "durations",
          "type": "uint256[]"
        }
      ],
      "name": "setCampaigns",
      "outputs": [],
      "stateMutability": "nonpayable",
      "type": "function"
    },
    {
      "inputs": [
        {
          "internalType": "bool",
          "name": "isERC1155",
          "type": "bool"
        },
        {
          "internalType": "uint256[]",
          "name": "tokenIds",
          "type": "uint256[]"
        },
        {
          "internalType": "uint256[]",
          "name": "hashrates",
          "type": "uint256[]"
        }
      ],
      "name": "setHashrate",
      "outputs": [],
      "stateMutability": "nonpayable",
      "type": "function"
    },
    {
      "inputs": [
        {
          "internalType": "address",
          "name": "_rewardsDistribution",
          "type": "address"
        }
      ],
      "name": "setRewardsDistribution",
      "outputs": [],
      "stateMutability": "nonpayable",
      "type": "function"
    },
    {
      "inputs": [
        {
          "internalType": "bytes4",
          "name": "interfaceId",
          "type": "bytes4"
        }
      ],
      "name": "supportsInterface",
      "outputs": [
        {
          "internalType": "bool",
          "name": "",
          "type": "bool"
        }
      ],
      "stateMutability": "view",
      "type": "function"
    },
    {
      "inputs": [
        {
          "internalType": "bool",
          "name": "",
          "type": "bool"
        },
        {
          "internalType": "uint256",
          "name": "",
          "type": "uint256"
        }
      ],
      "name": "tokenInfo",
      "outputs": [
        {
          "internalType": "uint256",
          "name": "campaignId",
          "type": "uint256"
        },
        {
          "internalType": "address",
          "name": "owner",
          "type": "address"
        },
        {
          "internalType": "uint256",
          "name": "hashrate",
          "type": "uint256"
        }
      ],
      "stateMutability": "view",
      "type": "function"
    },
    {
      "inputs": [
        {
          "internalType": "uint8",
          "name": "campaignId",
          "type": "uint8"
        }
      ],
      "name": "totalCampaignHashrate",
      "outputs": [
        {
          "internalType": "uint256",
          "name": "",
          "type": "uint256"
        }
      ],
      "stateMutability": "view",
      "type": "function"
    },
    {
      "inputs": [
        {
          "internalType": "uint8",
          "name": "",
          "type": "uint8"
        },
        {
          "internalType": "address",
          "name": "",
          "type": "address"
        }
      ],
      "name": "userInfo",
      "outputs": [
        {
          "internalType": "uint256",
          "name": "hashrate",
          "type": "uint256"
        },
        {
          "internalType": "uint256",
          "name": "userRewardPerTokenPaid",
          "type": "uint256"
        }
      ],
      "stateMutability": "view",
      "type": "function"
    },
    {
      "inputs": [
        {
          "internalType": "uint8",
          "name": "campaignId",
          "type": "uint8"
        },
        {
          "components": [
            {
              "internalType": "uint256[]",
              "name": "erc721TokenIds",
              "type": "uint256[]"
            },
            {
              "internalType": "uint256[]",
              "name": "erc1155TokenIds",
              "type": "uint256[]"
            },
            {
              "internalType": "uint256[]",
              "name": "erc1155Amounts",
              "type": "uint256[]"
            }
          ],
          "internalType": "struct DvisionStakingUpgradeable.Params",
          "name": "params",
          "type": "tuple"
        }
      ],
      "name": "withdraw",
      "outputs": [],
      "stateMutability": "nonpayable",
      "type": "function"
    }
  ],
  "bytecode": "0x608060405234801561001057600080fd5b50614abd806100206000396000f3fe608060405234801561001057600080fd5b50600436106101e55760003560e01c806376fa17d21161010f578063b08379bf116100a2578063c225819711610071578063c2258197146105db578063d547741f146105f7578063e0a795b014610613578063f23a6e6114610648576101e5565b8063b08379bf14610541578063b9df51a71461055f578063bc197c811461058f578063c0c53b8b146105bf576101e5565b806391ebcd31116100de57806391ebcd3114610491578063a217fddf146104c3578063a2df9212146104e1578063af0cd3c114610511576101e5565b806376fa17d2146103f857806378b0ccc7146104295780637cc95e0e1461044557806391d1485414610461576101e5565b80632ea080aa116101875780633fc6df6e116101565780633fc6df6e146103705780635f2d6bcd1461038e578063689f1623146103ac5780636e6331d3146103c8576101e5565b80632ea080aa146102ec5780632f2ff15d1461030857806336568abe1461032457806337b7dafd14610340576101e5565b8063177db00f116101c3578063177db00f14610266578063197621431461028257806321f422681461029e578063248a9ca3146102bc576101e5565b806301ffc9a7146101ea5780630cb319061461021a578063150b7a0214610236575b600080fd5b61020460048036038101906101ff919061379f565b610678565b6040516102119190613d73565b60405180910390f35b610234600480360381019061022f919061365d565b6106f2565b005b610250600480360381019061024b91906133d3565b61087b565b60405161025d9190613da9565b60405180910390f35b610280600480360381019061027b9190613839565b61088f565b005b61029c6004803603810190610297919061327b565b610ceb565b005b6102a6610d2f565b6040516102b39190613dc4565b60405180910390f35b6102d660048036038101906102d19190613732565b610d55565b6040516102e39190613d8e565b60405180910390f35b610306600480360381019061030191906135c8565b610d75565b005b610322600480360381019061031d919061375f565b610e8e565b005b61033e6004803603810190610339919061375f565b610eb7565b005b61035a600480360381019061035591906137cc565b610f3a565b6040516103679190613fdc565b60405180910390f35b610378610f5d565b6040516103859190613cb7565b60405180910390f35b610396610f83565b6040516103a39190613ddf565b60405180910390f35b6103c660048036038101906103c191906137cc565b610fa9565b005b6103e260048036038101906103dd91906137cc565b61125b565b6040516103ef9190613fdc565b60405180910390f35b610412600480360381019061040d91906137f9565b61131e565b604051610420929190614065565b60405180910390f35b610443600480360381019061043e91906134ed565b61134f565b005b61045f600480360381019061045a91906134ed565b6114df565b005b61047b6004803603810190610476919061375f565b6115f6565b6040516104889190613d73565b60405180910390f35b6104ab60048036038101906104a691906136f2565b611661565b6040516104ba93929190613ff7565b60405180910390f35b6104cb6116b8565b6040516104d89190613d8e565b60405180910390f35b6104fb60048036038101906104f691906137cc565b6116bf565b6040516105089190613fdc565b60405180910390f35b61052b600480360381019061052691906137f9565b61170f565b6040516105389190613fdc565b60405180910390f35b61054961180e565b6040516105569190613d73565b60405180910390f35b610579600480360381019061057491906137f9565b611821565b6040516105869190613fdc565b60405180910390f35b6105a960048036038101906105a491906132fb565b611846565b6040516105b69190613da9565b60405180910390f35b6105d960048036038101906105d491906132a8565b61185d565b005b6105f560048036038101906105f09190613839565b611aa5565b005b610611600480360381019061060c919061375f565b611faa565b005b61062d600480360381019061062891906137cc565b611fd3565b60405161063f969594939291906140c5565b60405180910390f35b610662600480360381019061065d9190613456565b61201c565b60405161066f9190613da9565b60405180910390f35b60007f7965db0b000000000000000000000000000000000000000000000000000000007bffffffffffffffffffffffffffffffffffffffffffffffffffffffff1916827bffffffffffffffffffffffffffffffffffffffffffffffffffffffff191614806106eb57506106ea82612031565b5b9050919050565b8460d160006101000a81548160ff0219169083151502179055508461083d5760005b8484905081101561083b5782828281811061073257610731614594565b5b9050602002016020810190610747919061356e565b60cc600087878581811061075e5761075d614594565b5b905060200201602081019061077391906137cc565b60ff1660ff16815260200190815260200160002060050160006101000a81548160ff0219169083151502179055507f3fbf3cf408a027f389a7cd7e0f13967af07eb88f19b6c2f33a35e43407a374c48585838181106107d5576107d4614594565b5b90506020020160208101906107ea91906137cc565b8484848181106107fd576107fc614594565b5b9050602002016020810190610812919061356e565b604051610820929190614126565b60405180910390a18080610833906144ed565b915050610714565b505b7ffe91902adb0b9acf90b1d6009ecf228f573afa392a70025fdfbaaeece43b6a438560405161086c9190613d73565b60405180910390a15050505050565b600063150b7a0260e01b9050949350505050565b600260975414156108d5576040517f08c379a00000000000000000000000000000000000000000000000000000000081526004016108cc90613f5c565b60405180910390fd5b60026097819055508133600060cc60008460ff1660ff16815260200190815260200160002090506109058361125b565b8160030181905550610916836116bf565b8160040181905550600073ffffffffffffffffffffffffffffffffffffffff168273ffffffffffffffffffffffffffffffffffffffff1614610a1f57600060ce60008560ff1660ff16815260200190815260200160002060008473ffffffffffffffffffffffffffffffffffffffff1673ffffffffffffffffffffffffffffffffffffffff16815260200190815260200160002090506109b6848461170f565b60cf60008660ff1660ff16815260200190815260200160002060008573ffffffffffffffffffffffffffffffffffffffff1673ffffffffffffffffffffffffffffffffffffffff1681526020019081526020016000208190555081600301548160010181905550505b838060400190610a2f919061414f565b9050848060200190610a41919061414f565b905014610a83576040517f08c379a0000000000000000000000000000000000000000000000000000000008152600401610a7a90613f9c565b60405180910390fd5b6000610ab1858060000190610a98919061414f565b9050868060200190610aaa919061414f565b905061209b565b905060008111610af6576040517f08c379a0000000000000000000000000000000000000000000000000000000008152600401610aed90613f9c565b60405180910390fd5b6000805b82811015610bf557868060000190610b12919061414f565b9050811015610b5f57610b51883360008a8060000190610b32919061414f565b86818110610b4357610b42614594565b5b9050602002013560016120b5565b82610b5c9190614256565b91505b868060200190610b6f919061414f565b9050811015610be257610bd4883360018a8060200190610b8f919061414f565b86818110610ba057610b9f614594565b5b905060200201358b8060400190610bb7919061414f565b87818110610bc857610bc7614594565b5b905060200201356120b5565b82610bdf9190614256565b91505b8080610bed906144ed565b915050610afa565b508060ce60008960ff1660ff16815260200190815260200160002060003373ffffffffffffffffffffffffffffffffffffffff1673ffffffffffffffffffffffffffffffffffffffff1681526020019081526020016000206000016000828254610c5f9190614256565b925050819055508060cd60008960ff1660ff1681526020019081526020016000206000828254610c8f9190614256565b92505081905550610cb03330888060000190610cab919061414f565b61231b565b610cda3330888060200190610cc5919061414f565b8a8060400190610cd5919061414f565b6124c3565b505050505060016097819055505050565b8060cb60006101000a81548173ffffffffffffffffffffffffffffffffffffffff021916908373ffffffffffffffffffffffffffffffffffffffff16021790555050565b60ca60009054906101000a900473ffffffffffffffffffffffffffffffffffffffff1681565b600060656000838152602001908152602001600020600101549050919050565b818190508484905014610dbd576040517f08c379a0000000000000000000000000000000000000000000000000000000008152600401610db490613f7c565b60405180910390fd5b60008484905011610e03576040517f08c379a0000000000000000000000000000000000000000000000000000000008152600401610dfa90613f9c565b60405180910390fd5b60005b84849050811015610e8657828282818110610e2457610e23614594565b5b9050602002013560d06000881515151581526020019081526020016000206000878785818110610e5757610e56614594565b5b905060200201358152602001908152602001600020600201819055508080610e7e906144ed565b915050610e06565b505050505050565b610e9782610d55565b610ea881610ea3612638565b612640565b610eb283836126dd565b505050565b610ebf612638565b73ffffffffffffffffffffffffffffffffffffffff168173ffffffffffffffffffffffffffffffffffffffff1614610f2c576040517f08c379a0000000000000000000000000000000000000000000000000000000008152600401610f2390613fbc565b60405180910390fd5b610f3682826127be565b5050565b600060cd60008360ff1660ff168152602001908152602001600020549050919050565b60cb60009054906101000a900473ffffffffffffffffffffffffffffffffffffffff1681565b60c960009054906101000a900473ffffffffffffffffffffffffffffffffffffffff1681565b60026097541415610fef576040517f08c379a0000000000000000000000000000000000000000000000000000000008152600401610fe690613f5c565b60405180910390fd5b60026097819055508033600060cc60008460ff1660ff168152602001908152602001600020905061101f8361125b565b8160030181905550611030836116bf565b8160040181905550600073ffffffffffffffffffffffffffffffffffffffff168273ffffffffffffffffffffffffffffffffffffffff161461113957600060ce60008560ff1660ff16815260200190815260200160002060008473ffffffffffffffffffffffffffffffffffffffff1673ffffffffffffffffffffffffffffffffffffffff16815260200190815260200160002090506110d0848461170f565b60cf60008660ff1660ff16815260200190815260200160002060008573ffffffffffffffffffffffffffffffffffffffff1673ffffffffffffffffffffffffffffffffffffffff1681526020019081526020016000208190555081600301548160010181905550505b600060cf60008660ff1660ff16815260200190815260200160002060003373ffffffffffffffffffffffffffffffffffffffff1673ffffffffffffffffffffffffffffffffffffffff168152602001908152602001600020549050600081111561124c57600060cf60008760ff1660ff16815260200190815260200160002060003373ffffffffffffffffffffffffffffffffffffffff1673ffffffffffffffffffffffffffffffffffffffff168152602001908152602001600020819055508460ff163373ffffffffffffffffffffffffffffffffffffffff167fb512db94d06053e78b39848053a3f1e8ccd4076797d95316b9d0b69aa0f8050c836040516112439190613fdc565b60405180910390a35b50505050600160978190555050565b60008060cc60008460ff1660ff1681526020019081526020016000209050600060cd60008560ff1660ff1681526020019081526020016000205414156112a8578060030154915050611319565b60cd60008460ff1660ff16815260200190815260200160002054670de0b6b3a7640000826002015483600401546112de876116bf565b6112e89190614337565b6112f291906142dd565b6112fc91906142dd565b61130691906142ac565b81600301546113159190614256565b9150505b919050565b60ce602052816000526040600020602052806000526040600020600091509150508060000154908060010154905082565b60cb60009054906101000a900473ffffffffffffffffffffffffffffffffffffffff1673ffffffffffffffffffffffffffffffffffffffff163373ffffffffffffffffffffffffffffffffffffffff16146113df576040517f08c379a00000000000000000000000000000000000000000000000000000000081526004016113d690613e7c565b60405180910390fd5b818190508484905014611427576040517f08c379a000000000000000000000000000000000000000000000000000000000815260040161141e90613f7c565b60405180910390fd5b6000848490501161146d576040517f08c379a000000000000000000000000000000000000000000000000000000000815260040161146490613f9c565b60405180910390fd5b60005b848490508110156114d8576114c585858381811061149157611490614594565b5b90506020020160208101906114a691906137cc565b8484848181106114b9576114b8614594565b5b905060200201356128a0565b80806114d0906144ed565b915050611470565b5050505050565b818190508484905014611527576040517f08c379a000000000000000000000000000000000000000000000000000000000815260040161151e90613f7c565b60405180910390fd5b6000848490501161156d576040517f08c379a000000000000000000000000000000000000000000000000000000000815260040161156490613f9c565b60405180910390fd5b60005b848490508110156115ef5782828281811061158e5761158d614594565b5b9050602002013560cc60008787858181106115ac576115ab614594565b5b90506020020160208101906115c191906137cc565b60ff1660ff1681526020019081526020016000206000018190555080806115e7906144ed565b915050611570565b5050505050565b60006065600084815260200190815260200160002060000160008373ffffffffffffffffffffffffffffffffffffffff1673ffffffffffffffffffffffffffffffffffffffff16815260200190815260200160002060009054906101000a900460ff16905092915050565b60d0602052816000526040600020602052806000526040600020600091509150508060000154908060010160009054906101000a900473ffffffffffffffffffffffffffffffffffffffff16908060020154905083565b6000801b81565b600060cc60008360ff1660ff1681526020019081526020016000206001015442106117065760cc60008360ff1660ff16815260200190815260200160002060010154611708565b425b9050919050565b60008060ce60008560ff1660ff16815260200190815260200160002060008473ffffffffffffffffffffffffffffffffffffffff1673ffffffffffffffffffffffffffffffffffffffff168152602001908152602001600020905060cf60008560ff1660ff16815260200190815260200160002060008473ffffffffffffffffffffffffffffffffffffffff1673ffffffffffffffffffffffffffffffffffffffff16815260200190815260200160002054670de0b6b3a764000082600101546117d88761125b565b6117e29190614337565b83600001546117f191906142dd565b6117fb91906142ac565b6118059190614256565b91505092915050565b60d160009054906101000a900460ff1681565b60cf602052816000526040600020602052806000526040600020600091509150505481565b600063bc197c8160e01b9050979650505050505050565b600060019054906101000a900460ff166118855760008054906101000a900460ff161561188e565b61188d612ad9565b5b6118cd576040517f08c379a00000000000000000000000000000000000000000000000000000000081526004016118c490613edc565b60405180910390fd5b60008060019054906101000a900460ff16159050801561191d576001600060016101000a81548160ff02191690831515021790555060016000806101000a81548160ff0219169083151502179055505b611925612aea565b61192d612b3b565b61193a6000801b33612b94565b8260c960006101000a81548173ffffffffffffffffffffffffffffffffffffffff021916908373ffffffffffffffffffffffffffffffffffffffff1602179055508160ca60006101000a81548173ffffffffffffffffffffffffffffffffffffffff021916908373ffffffffffffffffffffffffffffffffffffffff1602179055508360cb60006101000a81548173ffffffffffffffffffffffffffffffffffffffff021916908373ffffffffffffffffffffffffffffffffffffffff160217905550600060d160006101000a81548160ff02191690831515021790555062278d0060cc6000600160ff16815260200190815260200160002060000181905550624f1a0060cc6000600260ff168152602001908152602001600020600001819055506276a70060cc6000600360ff168152602001908152602001600020600001819055508015611a9f5760008060016101000a81548160ff0219169083151502179055505b50505050565b60026097541415611aeb576040517f08c379a0000000000000000000000000000000000000000000000000000000008152600401611ae290613f5c565b60405180910390fd5b60026097819055508133600060cc60008460ff1660ff1681526020019081526020016000209050611b1b8361125b565b8160030181905550611b2c836116bf565b8160040181905550600073ffffffffffffffffffffffffffffffffffffffff168273ffffffffffffffffffffffffffffffffffffffff1614611c3557600060ce60008560ff1660ff16815260200190815260200160002060008473ffffffffffffffffffffffffffffffffffffffff1673ffffffffffffffffffffffffffffffffffffffff1681526020019081526020016000209050611bcc848461170f565b60cf60008660ff1660ff16815260200190815260200160002060008573ffffffffffffffffffffffffffffffffffffffff1673ffffffffffffffffffffffffffffffffffffffff1681526020019081526020016000208190555081600301548160010181905550505b8460d160009054906101000a900460ff1680611c77575060cc60008260ff1660ff16815260200190815260200160002060050160009054906101000a900460ff165b80611c9e575060cc60008260ff1660ff168152602001908152602001600020600101544210155b611cdd576040517f08c379a0000000000000000000000000000000000000000000000000000000008152600401611cd490613e9c565b60405180910390fd5b848060400190611ced919061414f565b9050858060200190611cff919061414f565b905014611d41576040517f08c379a0000000000000000000000000000000000000000000000000000000008152600401611d3890613f9c565b60405180910390fd5b6000611d6f868060000190611d56919061414f565b9050878060200190611d68919061414f565b905061209b565b905060008111611db4576040517f08c379a0000000000000000000000000000000000000000000000000000000008152600401611dab90613f9c565b60405180910390fd5b6000805b82811015611eb357878060000190611dd0919061414f565b9050811015611e1d57611e0f893360008b8060000190611df0919061414f565b86818110611e0157611e00614594565b5b905060200201356001612ba2565b82611e1a9190614256565b91505b878060200190611e2d919061414f565b9050811015611ea057611e92893360018b8060200190611e4d919061414f565b86818110611e5e57611e5d614594565b5b905060200201358c8060400190611e75919061414f565b87818110611e8657611e85614594565b5b90506020020135612ba2565b82611e9d9190614256565b91505b8080611eab906144ed565b915050611db8565b508060ce60008a60ff1660ff16815260200190815260200160002060003373ffffffffffffffffffffffffffffffffffffffff1673ffffffffffffffffffffffffffffffffffffffff1681526020019081526020016000206000016000828254611f1d9190614337565b925050819055508060cd60008a60ff1660ff1681526020019081526020016000206000828254611f4d9190614337565b92505081905550611f6e3033898060000190611f69919061414f565b61231b565b611f983033898060200190611f83919061414f565b8b8060400190611f93919061414f565b6124c3565b50505050505060016097819055505050565b611fb382610d55565b611fc481611fbf612638565b612640565b611fce83836127be565b505050565b60cc6020528060005260406000206000915090508060000154908060010154908060020154908060030154908060040154908060050160009054906101000a900460ff16905086565b600063f23a6e6160e01b905095945050505050565b60007f01ffc9a7000000000000000000000000000000000000000000000000000000007bffffffffffffffffffffffffffffffffffffffffffffffffffffffff1916827bffffffffffffffffffffffffffffffffffffffffffffffffffffffff1916149050919050565b6000818310156120ab57816120ad565b825b905092915050565b60008060d0600086151515158152602001908152602001600020600085815260200190815260200160002090506000816002015411612129576040517f08c379a000000000000000000000000000000000000000000000000000000000815260040161212090613e5c565b60405180910390fd5b6000816000015414612170576040517f08c379a000000000000000000000000000000000000000000000000000000000815260040161216790613e3c565b60405180910390fd5b600073ffffffffffffffffffffffffffffffffffffffff168160010160009054906101000a900473ffffffffffffffffffffffffffffffffffffffff1673ffffffffffffffffffffffffffffffffffffffff1614612203576040517f08c379a00000000000000000000000000000000000000000000000000000000081526004016121fa90613e3c565b60405180910390fd5b8660ff168160000181905550858160010160006101000a81548173ffffffffffffffffffffffffffffffffffffffff021916908373ffffffffffffffffffffffffffffffffffffffff160217905550846122b3578660ff163373ffffffffffffffffffffffffffffffffffffffff167f221ca413d8d18e65c5599f7daf24b39184fc90c306a03646abb69535a482d4b0866001896040516122a69392919061402e565b60405180910390a361230a565b8660ff163373ffffffffffffffffffffffffffffffffffffffff167f221ca413d8d18e65c5599f7daf24b39184fc90c306a03646abb69535a482d4b08686896040516123019392919061408e565b60405180910390a35b806002015491505095945050505050565b600082829050141561232c576124bd565b60005b828290508110156124bb5760008060c960009054906101000a900473ffffffffffffffffffffffffffffffffffffffff1673ffffffffffffffffffffffffffffffffffffffff166342842e0e88888888888181106123905761238f614594565b5b905060200201356040516024016123a993929190613d3c565b6040516020818303038152906040529060e01b6020820180517bffffffffffffffffffffffffffffffffffffffffffffffffffffffff83818316178352505050506040516123f79190613c66565b6000604051808303816000865af19150503d8060008114612434576040519150601f19603f3d011682016040523d82523d6000602084013e612439565b606091505b50915091508180156124675750600081511480612466575080806020019051810190612465919061359b565b5b5b6124a6576040517f08c379a000000000000000000000000000000000000000000000000000000000815260040161249d90613f3c565b60405180910390fd5b505080806124b3906144ed565b91505061232f565b505b50505050565b60008484905014156124d457612630565b60008060ca60009054906101000a900473ffffffffffffffffffffffffffffffffffffffff1673ffffffffffffffffffffffffffffffffffffffff16632eb2c2d689898989898960405160240161253096959493929190613cd2565b6040516020818303038152906040529060e01b6020820180517bffffffffffffffffffffffffffffffffffffffffffffffffffffffff838183161783525050505060405161257e9190613c66565b6000604051808303816000865af19150503d80600081146125bb576040519150601f19603f3d011682016040523d82523d6000602084013e6125c0565b606091505b50915091508180156125ee57506000815114806125ed5750808060200190518101906125ec919061359b565b5b5b61262d576040517f08c379a000000000000000000000000000000000000000000000000000000000815260040161262490613f3c565b60405180910390fd5b50505b505050505050565b600033905090565b61264a82826115f6565b6126d95761266f8173ffffffffffffffffffffffffffffffffffffffff166014612e08565b61267d8360001c6020612e08565b60405160200161268e929190613c7d565b6040516020818303038152906040526040517f08c379a00000000000000000000000000000000000000000000000000000000081526004016126d09190613dfa565b60405180910390fd5b5050565b6126e782826115f6565b6127ba5760016065600084815260200190815260200160002060000160008373ffffffffffffffffffffffffffffffffffffffff1673ffffffffffffffffffffffffffffffffffffffff16815260200190815260200160002060006101000a81548160ff02191690831515021790555061275f612638565b73ffffffffffffffffffffffffffffffffffffffff168173ffffffffffffffffffffffffffffffffffffffff16837f2f8788117e7eff1d82e926ec794901d17c78024a50270940304540a733656f0d60405160405180910390a45b5050565b6127c882826115f6565b1561289c5760006065600084815260200190815260200160002060000160008373ffffffffffffffffffffffffffffffffffffffff1673ffffffffffffffffffffffffffffffffffffffff16815260200190815260200160002060006101000a81548160ff021916908315150217905550612841612638565b73ffffffffffffffffffffffffffffffffffffffff168173ffffffffffffffffffffffffffffffffffffffff16837ff6391f5c32d9c69d2a47ea670b442974b53935d1edc7fd64eb21e047a839171b60405160405180910390a45b5050565b8160008060cc60008460ff1660ff16815260200190815260200160002090506128c88361125b565b81600301819055506128d9836116bf565b8160040181905550600073ffffffffffffffffffffffffffffffffffffffff168273ffffffffffffffffffffffffffffffffffffffff16146129e257600060ce60008560ff1660ff16815260200190815260200160002060008473ffffffffffffffffffffffffffffffffffffffff1673ffffffffffffffffffffffffffffffffffffffff1681526020019081526020016000209050612979848461170f565b60cf60008660ff1660ff16815260200190815260200160002060008573ffffffffffffffffffffffffffffffffffffffff1673ffffffffffffffffffffffffffffffffffffffff1681526020019081526020016000208190555081600301548160010181905550505b600060cc60008760ff1660ff168152602001908152602001600020905080600101544210612a2757806000015485612a1a91906142ac565b8160020181905550612a75565b6000428260010154612a399190614337565b90506000826002015482612a4d91906142dd565b9050826000015481612a5f91906142ac565b87612a6a9190614256565b836002018190555050505b428160040181905550806000015442612a8e9190614256565b81600101819055508560ff167f406a05ea037fb7046345ab4216653f82847e4f5d0307d115f620041c8593dd7c86604051612ac99190613fdc565b60405180910390a2505050505050565b6000612ae430613044565b15905090565b600060019054906101000a900460ff16612b39576040517f08c379a0000000000000000000000000000000000000000000000000000000008152600401612b3090613f1c565b60405180910390fd5b565b600060019054906101000a900460ff16612b8a576040517f08c379a0000000000000000000000000000000000000000000000000000000008152600401612b8190613f1c565b60405180910390fd5b6001609781905550565b612b9e82826126dd565b5050565b60008060d0600086151515158152602001908152602001600020600085815260200190815260200160002090506000816002015411612c16576040517f08c379a0000000000000000000000000000000000000000000000000000000008152600401612c0d90613e5c565b60405180910390fd5b8660ff16816000015414612c5f576040517f08c379a0000000000000000000000000000000000000000000000000000000008152600401612c5690613ebc565b60405180910390fd5b8573ffffffffffffffffffffffffffffffffffffffff168160010160009054906101000a900473ffffffffffffffffffffffffffffffffffffffff1673ffffffffffffffffffffffffffffffffffffffff1614612cf1576040517f08c379a0000000000000000000000000000000000000000000000000000000008152600401612ce890613efc565b60405180910390fd5b6000816000018190555060008160010160006101000a81548173ffffffffffffffffffffffffffffffffffffffff021916908373ffffffffffffffffffffffffffffffffffffffff16021790555084612da0578660ff163373ffffffffffffffffffffffffffffffffffffffff167f2c99cd47e9e03c6a2dbdf93a6d0f387d972aae28cc1e36948bdd85c7c8e9cafb86600189604051612d939392919061402e565b60405180910390a3612df7565b8660ff163373ffffffffffffffffffffffffffffffffffffffff167f2c99cd47e9e03c6a2dbdf93a6d0f387d972aae28cc1e36948bdd85c7c8e9cafb868689604051612dee9392919061408e565b60405180910390a35b806002015491505095945050505050565b606060006002836002612e1b91906142dd565b612e259190614256565b67ffffffffffffffff811115612e3e57612e3d6145c3565b5b6040519080825280601f01601f191660200182016040528015612e705781602001600182028036833780820191505090505b5090507f300000000000000000000000000000000000000000000000000000000000000081600081518110612ea857612ea7614594565b5b60200101907effffffffffffffffffffffffffffffffffffffffffffffffffffffffffffff1916908160001a9053507f780000000000000000000000000000000000000000000000000000000000000081600181518110612f0c57612f0b614594565b5b60200101907effffffffffffffffffffffffffffffffffffffffffffffffffffffffffffff1916908160001a90535060006001846002612f4c91906142dd565b612f569190614256565b90505b6001811115612ff6577f3031323334353637383961626364656600000000000000000000000000000000600f861660108110612f9857612f97614594565b5b1a60f81b828281518110612faf57612fae614594565b5b60200101907effffffffffffffffffffffffffffffffffffffffffffffffffffffffffffff1916908160001a905350600485901c945080612fef90614492565b9050612f59565b506000841461303a576040517f08c379a000000000000000000000000000000000000000000000000000000000815260040161303190613e1c565b60405180910390fd5b8091505092915050565b600080823b905060008111915050919050565b600061306a613065846141d7565b6141b2565b90508281526020810184848401111561308657613085614615565b5b613091848285614450565b509392505050565b6000813590506130a8816149fd565b92915050565b60008083601f8401126130c4576130c36145f7565b5b8235905067ffffffffffffffff8111156130e1576130e06145f2565b5b6020830191508360208202830111156130fd576130fc61460b565b5b9250929050565b60008083601f84011261311a576131196145f7565b5b8235905067ffffffffffffffff811115613137576131366145f2565b5b6020830191508360208202830111156131535761315261460b565b5b9250929050565b60008083601f8401126131705761316f6145f7565b5b8235905067ffffffffffffffff81111561318d5761318c6145f2565b5b6020830191508360208202830111156131a9576131a861460b565b5b9250929050565b6000813590506131bf81614a14565b92915050565b6000815190506131d481614a14565b92915050565b6000813590506131e981614a2b565b92915050565b6000813590506131fe81614a42565b92915050565b600082601f830112613219576132186145f7565b5b8135613229848260208601613057565b91505092915050565b60006060828403121561324857613247614601565b5b81905092915050565b60008135905061326081614a59565b92915050565b60008135905061327581614a70565b92915050565b60006020828403121561329157613290614624565b5b600061329f84828501613099565b91505092915050565b6000806000606084860312156132c1576132c0614624565b5b60006132cf86828701613099565b93505060206132e086828701613099565b92505060406132f186828701613099565b9150509250925092565b600080600080600080600060a0888a03121561331a57613319614624565b5b60006133288a828b01613099565b97505060206133398a828b01613099565b965050604088013567ffffffffffffffff81111561335a5761335961461a565b5b6133668a828b01613104565b9550955050606088013567ffffffffffffffff8111156133895761338861461a565b5b6133958a828b01613104565b9350935050608088013567ffffffffffffffff8111156133b8576133b761461a565b5b6133c48a828b01613204565b91505092959891949750929550565b600080600080608085870312156133ed576133ec614624565b5b60006133fb87828801613099565b945050602061340c87828801613099565b935050604061341d87828801613251565b925050606085013567ffffffffffffffff81111561343e5761343d61461a565b5b61344a87828801613204565b91505092959194509250565b600080600080600060a0868803121561347257613471614624565b5b600061348088828901613099565b955050602061349188828901613099565b94505060406134a288828901613251565b93505060606134b388828901613251565b925050608086013567ffffffffffffffff8111156134d4576134d361461a565b5b6134e088828901613204565b9150509295509295909350565b6000806000806040858703121561350757613506614624565b5b600085013567ffffffffffffffff8111156135255761352461461a565b5b6135318782880161315a565b9450945050602085013567ffffffffffffffff8111156135545761355361461a565b5b61356087828801613104565b925092505092959194509250565b60006020828403121561358457613583614624565b5b6000613592848285016131b0565b91505092915050565b6000602082840312156135b1576135b0614624565b5b60006135bf848285016131c5565b91505092915050565b6000806000806000606086880312156135e4576135e3614624565b5b60006135f2888289016131b0565b955050602086013567ffffffffffffffff8111156136135761361261461a565b5b61361f88828901613104565b9450945050604086013567ffffffffffffffff8111156136425761364161461a565b5b61364e88828901613104565b92509250509295509295909350565b60008060008060006060868803121561367957613678614624565b5b6000613687888289016131b0565b955050602086013567ffffffffffffffff8111156136a8576136a761461a565b5b6136b48882890161315a565b9450945050604086013567ffffffffffffffff8111156136d7576136d661461a565b5b6136e3888289016130ae565b92509250509295509295909350565b6000806040838503121561370957613708614624565b5b6000613717858286016131b0565b925050602061372885828601613251565b9150509250929050565b60006020828403121561374857613747614624565b5b6000613756848285016131da565b91505092915050565b6000806040838503121561377657613775614624565b5b6000613784858286016131da565b925050602061379585828601613099565b9150509250929050565b6000602082840312156137b5576137b4614624565b5b60006137c3848285016131ef565b91505092915050565b6000602082840312156137e2576137e1614624565b5b60006137f084828501613266565b91505092915050565b600080604083850312156138105761380f614624565b5b600061381e85828601613266565b925050602061382f85828601613099565b9150509250929050565b600080604083850312156138505761384f614624565b5b600061385e85828601613266565b925050602083013567ffffffffffffffff81111561387f5761387e61461a565b5b61388b85828601613232565b9150509250929050565b61389e8161436b565b82525050565b60006138b0838561421e565b93507f07ffffffffffffffffffffffffffffffffffffffffffffffffffffffffffffff8311156138e3576138e261461f565b5b6020830292506138f4838584614450565b82840190509392505050565b6139098161437d565b82525050565b61391881614389565b82525050565b61392781614393565b82525050565b600061393882614208565b613942818561422f565b935061395281856020860161445f565b80840191505092915050565b613967816143f6565b82525050565b6139768161441a565b82525050565b6139858161443e565b82525050565b600061399682614213565b6139a0818561423a565b93506139b081856020860161445f565b6139b981614629565b840191505092915050565b60006139cf82614213565b6139d9818561424b565b93506139e981856020860161445f565b80840191505092915050565b6000613a0260208361423a565b9150613a0d8261463a565b602082019050919050565b6000613a25601a8361423a565b9150613a3082614663565b602082019050919050565b6000613a48601e8361423a565b9150613a538261468c565b602082019050919050565b6000613a6b60238361423a565b9150613a76826146b5565b604082019050919050565b6000613a8e60218361423a565b9150613a9982614704565b604082019050919050565b6000613ab160228361423a565b9150613abc82614753565b604082019050919050565b6000613ad4602e8361423a565b9150613adf826147a2565b604082019050919050565b6000613af7601f8361423a565b9150613b02826147f1565b602082019050919050565b6000613b1a60008361423a565b9150613b258261481a565b600082019050919050565b6000613b3d602b8361423a565b9150613b488261481d565b604082019050919050565b6000613b6060258361423a565b9150613b6b8261486c565b604082019050919050565b6000613b8360178361424b565b9150613b8e826148bb565b601782019050919050565b6000613ba6601f8361423a565b9150613bb1826148e4565b602082019050919050565b6000613bc960218361423a565b9150613bd48261490d565b604082019050919050565b6000613bec60118361424b565b9150613bf78261495c565b601182019050919050565b6000613c0f60208361423a565b9150613c1a82614985565b602082019050919050565b6000613c32602f8361423a565b9150613c3d826149ae565b604082019050919050565b613c51816143df565b82525050565b613c60816143e9565b82525050565b6000613c72828461392d565b915081905092915050565b6000613c8882613b76565b9150613c9482856139c4565b9150613c9f82613bdf565b9150613cab82846139c4565b91508190509392505050565b6000602082019050613ccc6000830184613895565b92915050565b600060a082019050613ce76000830189613895565b613cf46020830188613895565b8181036040830152613d078186886138a4565b90508181036060830152613d1c8184866138a4565b90508181036080830152613d2f81613b0d565b9050979650505050505050565b6000606082019050613d516000830186613895565b613d5e6020830185613895565b613d6b6040830184613c48565b949350505050565b6000602082019050613d886000830184613900565b92915050565b6000602082019050613da3600083018461390f565b92915050565b6000602082019050613dbe600083018461391e565b92915050565b6000602082019050613dd9600083018461395e565b92915050565b6000602082019050613df4600083018461396d565b92915050565b60006020820190508181036000830152613e14818461398b565b905092915050565b60006020820190508181036000830152613e35816139f5565b9050919050565b60006020820190508181036000830152613e5581613a18565b9050919050565b60006020820190508181036000830152613e7581613a3b565b9050919050565b60006020820190508181036000830152613e9581613a5e565b9050919050565b60006020820190508181036000830152613eb581613a81565b9050919050565b60006020820190508181036000830152613ed581613aa4565b9050919050565b60006020820190508181036000830152613ef581613ac7565b9050919050565b60006020820190508181036000830152613f1581613aea565b9050919050565b60006020820190508181036000830152613f3581613b30565b9050919050565b60006020820190508181036000830152613f5581613b53565b9050919050565b60006020820190508181036000830152613f7581613b99565b9050919050565b60006020820190508181036000830152613f9581613bbc565b9050919050565b60006020820190508181036000830152613fb581613c02565b9050919050565b60006020820190508181036000830152613fd581613c25565b9050919050565b6000602082019050613ff16000830184613c48565b92915050565b600060608201905061400c6000830186613c48565b6140196020830185613895565b6140266040830184613c48565b949350505050565b60006060820190506140436000830186613c48565b614050602083018561397c565b61405d6040830184613900565b949350505050565b600060408201905061407a6000830185613c48565b6140876020830184613c48565b9392505050565b60006060820190506140a36000830186613c48565b6140b06020830185613c48565b6140bd6040830184613900565b949350505050565b600060c0820190506140da6000830189613c48565b6140e76020830188613c48565b6140f46040830187613c48565b6141016060830186613c48565b61410e6080830185613c48565b61411b60a0830184613900565b979650505050505050565b600060408201905061413b6000830185613c57565b6141486020830184613900565b9392505050565b6000808335600160200384360303811261416c5761416b614606565b5b80840192508235915067ffffffffffffffff82111561418e5761418d6145fc565b5b6020830192506020820236038313156141aa576141a9614610565b5b509250929050565b60006141bc6141cd565b90506141c882826144bc565b919050565b6000604051905090565b600067ffffffffffffffff8211156141f2576141f16145c3565b5b6141fb82614629565b9050602081019050919050565b600081519050919050565b600081519050919050565b600082825260208201905092915050565b600081905092915050565b600082825260208201905092915050565b600081905092915050565b6000614261826143df565b915061426c836143df565b9250827fffffffffffffffffffffffffffffffffffffffffffffffffffffffffffffffff038211156142a1576142a0614536565b5b828201905092915050565b60006142b7826143df565b91506142c2836143df565b9250826142d2576142d1614565565b5b828204905092915050565b60006142e8826143df565b91506142f3836143df565b9250817fffffffffffffffffffffffffffffffffffffffffffffffffffffffffffffffff048311821515161561432c5761432b614536565b5b828202905092915050565b6000614342826143df565b915061434d836143df565b9250828210156143605761435f614536565b5b828203905092915050565b6000614376826143bf565b9050919050565b60008115159050919050565b6000819050919050565b60007fffffffff0000000000000000000000000000000000000000000000000000000082169050919050565b600073ffffffffffffffffffffffffffffffffffffffff82169050919050565b6000819050919050565b600060ff82169050919050565b600061440182614408565b9050919050565b6000614413826143bf565b9050919050565b60006144258261442c565b9050919050565b6000614437826143bf565b9050919050565b6000614449826143df565b9050919050565b82818337600083830152505050565b60005b8381101561447d578082015181840152602081019050614462565b8381111561448c576000848401525b50505050565b600061449d826143df565b915060008214156144b1576144b0614536565b5b600182039050919050565b6144c582614629565b810181811067ffffffffffffffff821117156144e4576144e36145c3565b5b80604052505050565b60006144f8826143df565b91507fffffffffffffffffffffffffffffffffffffffffffffffffffffffffffffffff82141561452b5761452a614536565b5b600182019050919050565b7f4e487b7100000000000000000000000000000000000000000000000000000000600052601160045260246000fd5b7f4e487b7100000000000000000000000000000000000000000000000000000000600052601260045260246000fd5b7f4e487b7100000000000000000000000000000000000000000000000000000000600052603260045260246000fd5b7f4e487b7100000000000000000000000000000000000000000000000000000000600052604160045260246000fd5b600080fd5b600080fd5b600080fd5b600080fd5b600080fd5b600080fd5b600080fd5b600080fd5b600080fd5b600080fd5b600080fd5b6000601f19601f8301169050919050565b7f537472696e67733a20686578206c656e67746820696e73756666696369656e74600082015250565b7f4476695374616b696e673a20616c7265616479207374616b6564000000000000600082015250565b7f4476695374616b696e673a20696e76616c696420746f6b656e20646174610000600082015250565b7f4476695374616b696e673a206e6f74207265776172647344697374726962757460008201527f696f6e0000000000000000000000000000000000000000000000000000000000602082015250565b7f4476695374616b696e673a206e6f7420616c6c6f7720746f207769746864726160008201527f7700000000000000000000000000000000000000000000000000000000000000602082015250565b7f4476695374616b696e673a20696e76616c696420746f6b656e2063616d70616960008201527f676e000000000000000000000000000000000000000000000000000000000000602082015250565b7f496e697469616c697a61626c653a20636f6e747261637420697320616c72656160008201527f647920696e697469616c697a6564000000000000000000000000000000000000602082015250565b7f4476695374616b696e673a20696e76616c696420746f6b656e206f776e657200600082015250565b50565b7f496e697469616c697a61626c653a20636f6e7472616374206973206e6f74206960008201527f6e697469616c697a696e67000000000000000000000000000000000000000000602082015250565b7f4476695374616b696e673a206261746368207472616e7366657246726f6d206660008201527f61696c6564000000000000000000000000000000000000000000000000000000602082015250565b7f416363657373436f6e74726f6c3a206163636f756e7420000000000000000000600082015250565b7f5265656e7472616e637947756172643a207265656e7472616e742063616c6c00600082015250565b7f4476695374616b696e673a20696e76616c696420706172616d73206c656e677460008201527f6800000000000000000000000000000000000000000000000000000000000000602082015250565b7f206973206d697373696e6720726f6c6520000000000000000000000000000000600082015250565b7f4476695374616b696e673a20696e76616c696420706172616d206c656e677468600082015250565b7f416363657373436f6e74726f6c3a2063616e206f6e6c792072656e6f756e636560008201527f20726f6c657320666f722073656c660000000000000000000000000000000000602082015250565b614a068161436b565b8114614a1157600080fd5b50565b614a1d8161437d565b8114614a2857600080fd5b50565b614a3481614389565b8114614a3f57600080fd5b50565b614a4b81614393565b8114614a5657600080fd5b50565b614a62816143df565b8114614a6d57600080fd5b50565b614a79816143e9565b8114614a8457600080fd5b5056fea26469706673582212207f35c06ec162e05e3c720e73ed343062073110a746dc262bd36008b572f0429b64736f6c63430008060033",
  "linkReferences": {},
  "deployedLinkReferences": {}
}