{
  "_format": "hh-sol-artifact-1",
  "contractName": "DvisionStakingUpgradeable",
  "sourceName": "contracts/DvisionStakingUpgradeable.sol",
  "abi": [
    {
      "anonymous": false,
      "inputs": [
        {
          "indexed": false,
          "internalType": "uint8",
          "name": "campaignId",
          "type": "uint8"
        },
        {
          "indexed": false,
          "internalType": "bool",
          "name": "allow",
          "type": "bool"
        }
      ],
      "name": "AllowedCampaignWithdraw",
      "type": "event"
    },
    {
      "anonymous": false,
      "inputs": [
        {
          "indexed": false,
          "internalType": "bool",
          "name": "allow",
          "type": "bool"
        }
      ],
      "name": "AllowedWithdrawAll",
      "type": "event"
    },
    {
      "anonymous": false,
      "inputs": [
        {
          "indexed": true,
          "internalType": "address",
          "name": "user",
          "type": "address"
        },
        {
          "indexed": true,
          "internalType": "uint8",
          "name": "campaignId",
          "type": "uint8"
        },
        {
          "indexed": false,
          "internalType": "uint256",
          "name": "amount",
          "type": "uint256"
        }
      ],
      "name": "ClaimedReward",
      "type": "event"
    },
    {
      "anonymous": false,
      "inputs": [
        {
          "indexed": true,
          "internalType": "address",
          "name": "user",
          "type": "address"
        },
        {
          "indexed": true,
          "internalType": "uint8",
          "name": "campaignId",
          "type": "uint8"
        },
        {
          "indexed": false,
          "internalType": "uint256",
          "name": "tokenId",
          "type": "uint256"
        },
        {
          "indexed": false,
          "internalType": "uint256",
          "name": "amount",
          "type": "uint256"
        },
        {
          "indexed": false,
          "internalType": "bool",
          "name": "isERC1155",
          "type": "bool"
        }
      ],
      "name": "Deposited",
      "type": "event"
    },
    {
      "anonymous": false,
      "inputs": [
        {
          "indexed": true,
          "internalType": "uint8",
          "name": "campaignId",
          "type": "uint8"
        },
        {
          "indexed": false,
          "internalType": "uint256",
          "name": "reward",
          "type": "uint256"
        }
      ],
      "name": "RewardAdded",
      "type": "event"
    },
    {
      "anonymous": false,
      "inputs": [
        {
          "indexed": true,
          "internalType": "bytes32",
          "name": "role",
          "type": "bytes32"
        },
        {
          "indexed": true,
          "internalType": "bytes32",
          "name": "previousAdminRole",
          "type": "bytes32"
        },
        {
          "indexed": true,
          "internalType": "bytes32",
          "name": "newAdminRole",
          "type": "bytes32"
        }
      ],
      "name": "RoleAdminChanged",
      "type": "event"
    },
    {
      "anonymous": false,
      "inputs": [
        {
          "indexed": true,
          "internalType": "bytes32",
          "name": "role",
          "type": "bytes32"
        },
        {
          "indexed": true,
          "internalType": "address",
          "name": "account",
          "type": "address"
        },
        {
          "indexed": true,
          "internalType": "address",
          "name": "sender",
          "type": "address"
        }
      ],
      "name": "RoleGranted",
      "type": "event"
    },
    {
      "anonymous": false,
      "inputs": [
        {
          "indexed": true,
          "internalType": "bytes32",
          "name": "role",
          "type": "bytes32"
        },
        {
          "indexed": true,
          "internalType": "address",
          "name": "account",
          "type": "address"
        },
        {
          "indexed": true,
          "internalType": "address",
          "name": "sender",
          "type": "address"
        }
      ],
      "name": "RoleRevoked",
      "type": "event"
    },
    {
      "anonymous": false,
      "inputs": [
        {
          "indexed": true,
          "internalType": "address",
          "name": "user",
          "type": "address"
        },
        {
          "indexed": true,
          "internalType": "uint8",
          "name": "campaignId",
          "type": "uint8"
        },
        {
          "indexed": false,
          "internalType": "uint256",
          "name": "tokenId",
          "type": "uint256"
        },
        {
          "indexed": false,
          "internalType": "uint256",
          "name": "amount",
          "type": "uint256"
        },
        {
          "indexed": false,
          "internalType": "bool",
          "name": "isERC1155",
          "type": "bool"
        }
      ],
      "name": "Withdrawn",
      "type": "event"
    },
    {
      "inputs": [],
      "name": "DEFAULT_ADMIN_ROLE",
      "outputs": [
        {
          "internalType": "bytes32",
          "name": "",
          "type": "bytes32"
        }
      ],
      "stateMutability": "view",
      "type": "function"
    },
    {
      "inputs": [],
      "name": "allowWithdrawAll",
      "outputs": [
        {
          "internalType": "bool",
          "name": "",
          "type": "bool"
        }
      ],
      "stateMutability": "view",
      "type": "function"
    },
    {
      "inputs": [
        {
          "internalType": "uint8",
          "name": "",
          "type": "uint8"
        }
      ],
      "name": "campaignInfo",
      "outputs": [
        {
          "internalType": "uint256",
          "name": "duration",
          "type": "uint256"
        },
        {
          "internalType": "uint256",
          "name": "timestampFinish",
          "type": "uint256"
        },
        {
          "internalType": "uint256",
          "name": "rewardRate",
          "type": "uint256"
        },
        {
          "internalType": "uint256",
          "name": "rewardPerTokenStored",
          "type": "uint256"
        },
        {
          "internalType": "uint256",
          "name": "lastUpdateTime",
          "type": "uint256"
        },
        {
          "internalType": "bool",
          "name": "allowWithdraw",
          "type": "bool"
        }
      ],
      "stateMutability": "view",
      "type": "function"
    },
    {
      "inputs": [
        {
          "internalType": "uint8",
          "name": "campaignId",
          "type": "uint8"
        }
      ],
      "name": "claimReward",
      "outputs": [],
      "stateMutability": "nonpayable",
      "type": "function"
    },
    {
      "inputs": [
        {
          "internalType": "uint8",
          "name": "campaignId",
          "type": "uint8"
        },
        {
          "components": [
            {
              "internalType": "uint256[]",
              "name": "erc721TokenIds",
              "type": "uint256[]"
            },
            {
              "internalType": "uint256[]",
              "name": "erc1155TokenIds",
              "type": "uint256[]"
            },
            {
              "internalType": "uint256[]",
              "name": "erc1155Amounts",
              "type": "uint256[]"
            }
          ],
          "internalType": "struct DvisionStakingUpgradeable.Params",
          "name": "params",
          "type": "tuple"
        }
      ],
      "name": "deposit",
      "outputs": [],
      "stateMutability": "nonpayable",
      "type": "function"
    },
    {
      "inputs": [],
      "name": "erc1155Token",
      "outputs": [
        {
          "internalType": "contract IERC1155Upgradeable",
          "name": "",
          "type": "address"
        }
      ],
      "stateMutability": "view",
      "type": "function"
    },
    {
      "inputs": [],
      "name": "erc721Token",
      "outputs": [
        {
          "internalType": "contract IERC721Upgradeable",
          "name": "",
          "type": "address"
        }
      ],
      "stateMutability": "view",
      "type": "function"
    },
    {
      "inputs": [
        {
          "internalType": "uint8",
          "name": "campaignId",
          "type": "uint8"
        },
        {
          "internalType": "address",
          "name": "account",
          "type": "address"
        }
      ],
      "name": "getCampaignEarned",
      "outputs": [
        {
          "internalType": "uint256",
          "name": "",
          "type": "uint256"
        }
      ],
      "stateMutability": "view",
      "type": "function"
    },
    {
      "inputs": [
        {
          "internalType": "bytes32",
          "name": "role",
          "type": "bytes32"
        }
      ],
      "name": "getRoleAdmin",
      "outputs": [
        {
          "internalType": "bytes32",
          "name": "",
          "type": "bytes32"
        }
      ],
      "stateMutability": "view",
      "type": "function"
    },
    {
      "inputs": [
        {
          "internalType": "bytes32",
          "name": "role",
          "type": "bytes32"
        },
        {
          "internalType": "address",
          "name": "account",
          "type": "address"
        }
      ],
      "name": "grantRole",
      "outputs": [],
      "stateMutability": "nonpayable",
      "type": "function"
    },
    {
      "inputs": [
        {
          "internalType": "bytes32",
          "name": "role",
          "type": "bytes32"
        },
        {
          "internalType": "address",
          "name": "account",
          "type": "address"
        }
      ],
      "name": "hasRole",
      "outputs": [
        {
          "internalType": "bool",
          "name": "",
          "type": "bool"
        }
      ],
      "stateMutability": "view",
      "type": "function"
    },
    {
      "inputs": [
        {
          "internalType": "address",
          "name": "_rewardsDistribution",
          "type": "address"
        },
        {
          "internalType": "address",
          "name": "_erc721Token",
          "type": "address"
        },
        {
          "internalType": "address",
          "name": "_erc1155Token",
          "type": "address"
        }
      ],
      "name": "initialize",
      "outputs": [],
      "stateMutability": "nonpayable",
      "type": "function"
    },
    {
      "inputs": [
        {
          "internalType": "uint8",
          "name": "campaignId",
          "type": "uint8"
        }
      ],
      "name": "lastTimeRewardApplicable",
      "outputs": [
        {
          "internalType": "uint256",
          "name": "",
          "type": "uint256"
        }
      ],
      "stateMutability": "view",
      "type": "function"
    },
    {
      "inputs": [
        {
          "internalType": "uint8[]",
          "name": "campaignIds",
          "type": "uint8[]"
        },
        {
          "internalType": "uint256[]",
          "name": "amounts",
          "type": "uint256[]"
        }
      ],
      "name": "notifyRewardAmount",
      "outputs": [],
      "stateMutability": "nonpayable",
      "type": "function"
    },
    {
      "inputs": [
        {
          "internalType": "address",
          "name": "",
          "type": "address"
        },
        {
          "internalType": "address",
          "name": "",
          "type": "address"
        },
        {
          "internalType": "uint256[]",
          "name": "",
          "type": "uint256[]"
        },
        {
          "internalType": "uint256[]",
          "name": "",
          "type": "uint256[]"
        },
        {
          "internalType": "bytes",
          "name": "",
          "type": "bytes"
        }
      ],
      "name": "onERC1155BatchReceived",
      "outputs": [
        {
          "internalType": "bytes4",
          "name": "",
          "type": "bytes4"
        }
      ],
      "stateMutability": "nonpayable",
      "type": "function"
    },
    {
      "inputs": [
        {
          "internalType": "address",
          "name": "",
          "type": "address"
        },
        {
          "internalType": "address",
          "name": "",
          "type": "address"
        },
        {
          "internalType": "uint256",
          "name": "",
          "type": "uint256"
        },
        {
          "internalType": "uint256",
          "name": "",
          "type": "uint256"
        },
        {
          "internalType": "bytes",
          "name": "",
          "type": "bytes"
        }
      ],
      "name": "onERC1155Received",
      "outputs": [
        {
          "internalType": "bytes4",
          "name": "",
          "type": "bytes4"
        }
      ],
      "stateMutability": "nonpayable",
      "type": "function"
    },
    {
      "inputs": [
        {
          "internalType": "address",
          "name": "",
          "type": "address"
        },
        {
          "internalType": "address",
          "name": "",
          "type": "address"
        },
        {
          "internalType": "uint256",
          "name": "",
          "type": "uint256"
        },
        {
          "internalType": "bytes",
          "name": "",
          "type": "bytes"
        }
      ],
      "name": "onERC721Received",
      "outputs": [
        {
          "internalType": "bytes4",
          "name": "",
          "type": "bytes4"
        }
      ],
      "stateMutability": "nonpayable",
      "type": "function"
    },
    {
      "inputs": [
        {
          "internalType": "bytes32",
          "name": "role",
          "type": "bytes32"
        },
        {
          "internalType": "address",
          "name": "account",
          "type": "address"
        }
      ],
      "name": "renounceRole",
      "outputs": [],
      "stateMutability": "nonpayable",
      "type": "function"
    },
    {
      "inputs": [
        {
          "internalType": "bytes32",
          "name": "role",
          "type": "bytes32"
        },
        {
          "internalType": "address",
          "name": "account",
          "type": "address"
        }
      ],
      "name": "revokeRole",
      "outputs": [],
      "stateMutability": "nonpayable",
      "type": "function"
    },
    {
      "inputs": [
        {
          "internalType": "uint8",
          "name": "campaignId",
          "type": "uint8"
        }
      ],
      "name": "rewardPerToken",
      "outputs": [
        {
          "internalType": "uint256",
          "name": "",
          "type": "uint256"
        }
      ],
      "stateMutability": "view",
      "type": "function"
    },
    {
      "inputs": [
        {
          "internalType": "uint8",
          "name": "",
          "type": "uint8"
        },
        {
          "internalType": "address",
          "name": "",
          "type": "address"
        }
      ],
      "name": "rewards",
      "outputs": [
        {
          "internalType": "uint256",
          "name": "",
          "type": "uint256"
        }
      ],
      "stateMutability": "view",
      "type": "function"
    },
    {
      "inputs": [],
      "name": "rewardsDistribution",
      "outputs": [
        {
          "internalType": "address",
          "name": "",
          "type": "address"
        }
      ],
      "stateMutability": "view",
      "type": "function"
    },
    {
      "inputs": [
        {
          "internalType": "bool",
          "name": "_allownWithdrawAll",
          "type": "bool"
        },
        {
          "internalType": "uint8[]",
          "name": "_campaigns",
          "type": "uint8[]"
        },
        {
          "internalType": "bool[]",
          "name": "_isAllowWithdraw",
          "type": "bool[]"
        }
      ],
      "name": "setAllowWithdraw",
      "outputs": [],
      "stateMutability": "nonpayable",
      "type": "function"
    },
    {
      "inputs": [
        {
          "internalType": "uint8[]",
          "name": "campaignIds",
          "type": "uint8[]"
        },
        {
          "internalType": "uint256[]",
          "name": "durations",
          "type": "uint256[]"
        }
      ],
      "name": "setCampaigns",
      "outputs": [],
      "stateMutability": "nonpayable",
      "type": "function"
    },
    {
      "inputs": [
        {
          "internalType": "uint256[]",
          "name": "tokenIds",
          "type": "uint256[]"
        },
        {
          "internalType": "uint256[]",
          "name": "hashrates",
          "type": "uint256[]"
        }
      ],
      "name": "setHashrate",
      "outputs": [],
      "stateMutability": "nonpayable",
      "type": "function"
    },
    {
      "inputs": [
        {
          "internalType": "address",
          "name": "_rewardsDistribution",
          "type": "address"
        }
      ],
      "name": "setRewardsDistribution",
      "outputs": [],
      "stateMutability": "nonpayable",
      "type": "function"
    },
    {
      "inputs": [
        {
          "internalType": "bytes4",
          "name": "interfaceId",
          "type": "bytes4"
        }
      ],
      "name": "supportsInterface",
      "outputs": [
        {
          "internalType": "bool",
          "name": "",
          "type": "bool"
        }
      ],
      "stateMutability": "view",
      "type": "function"
    },
    {
      "inputs": [
        {
          "internalType": "uint256",
          "name": "",
          "type": "uint256"
        }
      ],
      "name": "tokenInfo",
      "outputs": [
        {
          "internalType": "uint256",
          "name": "campaignId",
          "type": "uint256"
        },
        {
          "internalType": "address",
          "name": "owner",
          "type": "address"
        },
        {
          "internalType": "uint256",
          "name": "hashrate",
          "type": "uint256"
        }
      ],
      "stateMutability": "view",
      "type": "function"
    },
    {
      "inputs": [
        {
          "internalType": "uint8",
          "name": "campaignId",
          "type": "uint8"
        }
      ],
      "name": "totalCampaignHashrate",
      "outputs": [
        {
          "internalType": "uint256",
          "name": "",
          "type": "uint256"
        }
      ],
      "stateMutability": "view",
      "type": "function"
    },
    {
      "inputs": [
        {
          "internalType": "uint8",
          "name": "",
          "type": "uint8"
        },
        {
          "internalType": "address",
          "name": "",
          "type": "address"
        }
      ],
      "name": "userInfo",
      "outputs": [
        {
          "internalType": "uint256",
          "name": "hashrate",
          "type": "uint256"
        },
        {
          "internalType": "uint256",
          "name": "userRewardPerTokenPaid",
          "type": "uint256"
        }
      ],
      "stateMutability": "view",
      "type": "function"
    },
    {
      "inputs": [
        {
          "internalType": "uint8",
          "name": "campaignId",
          "type": "uint8"
        },
        {
          "components": [
            {
              "internalType": "uint256[]",
              "name": "erc721TokenIds",
              "type": "uint256[]"
            },
            {
              "internalType": "uint256[]",
              "name": "erc1155TokenIds",
              "type": "uint256[]"
            },
            {
              "internalType": "uint256[]",
              "name": "erc1155Amounts",
              "type": "uint256[]"
            }
          ],
          "internalType": "struct DvisionStakingUpgradeable.Params",
          "name": "params",
          "type": "tuple"
        }
      ],
      "name": "withdraw",
      "outputs": [],
      "stateMutability": "nonpayable",
      "type": "function"
    }
  ],
  "bytecode": "0x608060405234801561001057600080fd5b50614a49806100206000396000f3fe608060405234801561001057600080fd5b50600436106101e55760003560e01c806378b0ccc71161010f578063bc197c81116100a2578063cc33c87511610071578063cc33c875146105c5578063d547741f146105f7578063e0a795b014610613578063f23a6e6114610648576101e5565b8063bc197c8114610541578063c06a952114610571578063c0c53b8b1461058d578063c2258197146105a9576101e5565b8063a2df9212116100de578063a2df921214610493578063af0cd3c1146104c3578063b08379bf146104f3578063b9df51a714610511576101e5565b806378b0ccc71461040d5780637cc95e0e1461042957806391d1485414610445578063a217fddf14610475576101e5565b80632f2ff15d116101875780635f2d6bcd116101565780635f2d6bcd14610372578063689f1623146103905780636e6331d3146103ac57806376fa17d2146103dc576101e5565b80632f2ff15d146102ec57806336568abe1461030857806337b7dafd146103245780633fc6df6e14610354576101e5565b8063177db00f116101c3578063177db00f14610266578063197621431461028257806321f422681461029e578063248a9ca3146102bc576101e5565b806301ffc9a7146101ea5780630cb319061461021a578063150b7a0214610236575b600080fd5b61020460048036038101906101ff91906136fe565b610678565b6040516102119190613cff565b60405180910390f35b610234600480360381019061022f91906135fc565b6106f2565b005b610250600480360381019061024b9190613386565b61087b565b60405161025d9190613d35565b60405180910390f35b610280600480360381019061027b91906137c5565b61088f565b005b61029c6004803603810190610297919061322e565b610ceb565b005b6102a6610d2f565b6040516102b39190613d50565b60405180910390f35b6102d660048036038101906102d19190613691565b610d55565b6040516102e39190613d1a565b60405180910390f35b610306600480360381019061030191906136be565b610d75565b005b610322600480360381019061031d91906136be565b610d9e565b005b61033e60048036038101906103399190613758565b610e21565b60405161034b9190613f68565b60405180910390f35b61035c610e44565b6040516103699190613c43565b60405180910390f35b61037a610e6a565b6040516103879190613d6b565b60405180910390f35b6103aa60048036038101906103a59190613758565b610e90565b005b6103c660048036038101906103c19190613758565b611142565b6040516103d39190613f68565b60405180910390f35b6103f660048036038101906103f19190613785565b611205565b604051610404929190613ff1565b60405180910390f35b61042760048036038101906104229190613521565b611236565b005b610443600480360381019061043e9190613521565b6113c6565b005b61045f600480360381019061045a91906136be565b6114dd565b60405161046c9190613cff565b60405180910390f35b61047d611548565b60405161048a9190613d1a565b60405180910390f35b6104ad60048036038101906104a89190613758565b61154f565b6040516104ba9190613f68565b60405180910390f35b6104dd60048036038101906104d89190613785565b61159f565b6040516104ea9190613f68565b60405180910390f35b6104fb61169e565b6040516105089190613cff565b60405180910390f35b61052b60048036038101906105269190613785565b6116b1565b6040516105389190613f68565b60405180910390f35b61055b600480360381019061055691906132ae565b6116d6565b6040516105689190613d35565b60405180910390f35b61058b600480360381019061058691906134a0565b6116ed565b005b6105a760048036038101906105a2919061325b565b6117f0565b005b6105c360048036038101906105be91906137c5565b611a38565b005b6105df60048036038101906105da919061372b565b611f3d565b6040516105ee93929190613f83565b60405180910390f35b610611600480360381019061060c91906136be565b611f87565b005b61062d60048036038101906106289190613758565b611fb0565b60405161063f96959493929190614051565b60405180910390f35b610662600480360381019061065d9190613409565b611ff9565b60405161066f9190613d35565b60405180910390f35b60007f7965db0b000000000000000000000000000000000000000000000000000000007bffffffffffffffffffffffffffffffffffffffffffffffffffffffff1916827bffffffffffffffffffffffffffffffffffffffffffffffffffffffff191614806106eb57506106ea8261200e565b5b9050919050565b8460d160006101000a81548160ff0219169083151502179055508461083d5760005b8484905081101561083b5782828281811061073257610731614520565b5b905060200201602081019061074791906135a2565b60cc600087878581811061075e5761075d614520565b5b90506020020160208101906107739190613758565b60ff1660ff16815260200190815260200160002060050160006101000a81548160ff0219169083151502179055507f3fbf3cf408a027f389a7cd7e0f13967af07eb88f19b6c2f33a35e43407a374c48585838181106107d5576107d4614520565b5b90506020020160208101906107ea9190613758565b8484848181106107fd576107fc614520565b5b905060200201602081019061081291906135a2565b6040516108209291906140b2565b60405180910390a1808061083390614479565b915050610714565b505b7ffe91902adb0b9acf90b1d6009ecf228f573afa392a70025fdfbaaeece43b6a438560405161086c9190613cff565b60405180910390a15050505050565b600063150b7a0260e01b9050949350505050565b600260975414156108d5576040517f08c379a00000000000000000000000000000000000000000000000000000000081526004016108cc90613ee8565b60405180910390fd5b60026097819055508133600060cc60008460ff1660ff168152602001908152602001600020905061090583611142565b81600301819055506109168361154f565b8160040181905550600073ffffffffffffffffffffffffffffffffffffffff168273ffffffffffffffffffffffffffffffffffffffff1614610a1f57600060ce60008560ff1660ff16815260200190815260200160002060008473ffffffffffffffffffffffffffffffffffffffff1673ffffffffffffffffffffffffffffffffffffffff16815260200190815260200160002090506109b6848461159f565b60cf60008660ff1660ff16815260200190815260200160002060008573ffffffffffffffffffffffffffffffffffffffff1673ffffffffffffffffffffffffffffffffffffffff1681526020019081526020016000208190555081600301548160010181905550505b838060400190610a2f91906140db565b9050848060200190610a4191906140db565b905014610a83576040517f08c379a0000000000000000000000000000000000000000000000000000000008152600401610a7a90613f28565b60405180910390fd5b6000610ab1858060000190610a9891906140db565b9050868060200190610aaa91906140db565b9050612078565b905060008111610af6576040517f08c379a0000000000000000000000000000000000000000000000000000000008152600401610aed90613f28565b60405180910390fd5b6000805b82811015610bf557868060000190610b1291906140db565b9050811015610b5f57610b51883360008a8060000190610b3291906140db565b86818110610b4357610b42614520565b5b905060200201356001612092565b82610b5c91906141e2565b91505b868060200190610b6f91906140db565b9050811015610be257610bd4883360018a8060200190610b8f91906140db565b86818110610ba057610b9f614520565b5b905060200201358b8060400190610bb791906140db565b87818110610bc857610bc7614520565b5b90506020020135612092565b82610bdf91906141e2565b91505b8080610bed90614479565b915050610afa565b508060ce60008960ff1660ff16815260200190815260200160002060003373ffffffffffffffffffffffffffffffffffffffff1673ffffffffffffffffffffffffffffffffffffffff1681526020019081526020016000206000016000828254610c5f91906141e2565b925050819055508060cd60008960ff1660ff1681526020019081526020016000206000828254610c8f91906141e2565b92505081905550610cb03330888060000190610cab91906140db565b6122e3565b610cda3330888060200190610cc591906140db565b8a8060400190610cd591906140db565b61248b565b505050505060016097819055505050565b8060cb60006101000a81548173ffffffffffffffffffffffffffffffffffffffff021916908373ffffffffffffffffffffffffffffffffffffffff16021790555050565b60ca60009054906101000a900473ffffffffffffffffffffffffffffffffffffffff1681565b600060656000838152602001908152602001600020600101549050919050565b610d7e82610d55565b610d8f81610d8a612600565b612608565b610d9983836126a5565b505050565b610da6612600565b73ffffffffffffffffffffffffffffffffffffffff168173ffffffffffffffffffffffffffffffffffffffff1614610e13576040517f08c379a0000000000000000000000000000000000000000000000000000000008152600401610e0a90613f48565b60405180910390fd5b610e1d8282612786565b5050565b600060cd60008360ff1660ff168152602001908152602001600020549050919050565b60cb60009054906101000a900473ffffffffffffffffffffffffffffffffffffffff1681565b60c960009054906101000a900473ffffffffffffffffffffffffffffffffffffffff1681565b60026097541415610ed6576040517f08c379a0000000000000000000000000000000000000000000000000000000008152600401610ecd90613ee8565b60405180910390fd5b60026097819055508033600060cc60008460ff1660ff1681526020019081526020016000209050610f0683611142565b8160030181905550610f178361154f565b8160040181905550600073ffffffffffffffffffffffffffffffffffffffff168273ffffffffffffffffffffffffffffffffffffffff161461102057600060ce60008560ff1660ff16815260200190815260200160002060008473ffffffffffffffffffffffffffffffffffffffff1673ffffffffffffffffffffffffffffffffffffffff1681526020019081526020016000209050610fb7848461159f565b60cf60008660ff1660ff16815260200190815260200160002060008573ffffffffffffffffffffffffffffffffffffffff1673ffffffffffffffffffffffffffffffffffffffff1681526020019081526020016000208190555081600301548160010181905550505b600060cf60008660ff1660ff16815260200190815260200160002060003373ffffffffffffffffffffffffffffffffffffffff1673ffffffffffffffffffffffffffffffffffffffff168152602001908152602001600020549050600081111561113357600060cf60008760ff1660ff16815260200190815260200160002060003373ffffffffffffffffffffffffffffffffffffffff1673ffffffffffffffffffffffffffffffffffffffff168152602001908152602001600020819055508460ff163373ffffffffffffffffffffffffffffffffffffffff167fb512db94d06053e78b39848053a3f1e8ccd4076797d95316b9d0b69aa0f8050c8360405161112a9190613f68565b60405180910390a35b50505050600160978190555050565b60008060cc60008460ff1660ff1681526020019081526020016000209050600060cd60008560ff1660ff16815260200190815260200160002054141561118f578060030154915050611200565b60cd60008460ff1660ff16815260200190815260200160002054670de0b6b3a7640000826002015483600401546111c58761154f565b6111cf91906142c3565b6111d99190614269565b6111e39190614269565b6111ed9190614238565b81600301546111fc91906141e2565b9150505b919050565b60ce602052816000526040600020602052806000526040600020600091509150508060000154908060010154905082565b60cb60009054906101000a900473ffffffffffffffffffffffffffffffffffffffff1673ffffffffffffffffffffffffffffffffffffffff163373ffffffffffffffffffffffffffffffffffffffff16146112c6576040517f08c379a00000000000000000000000000000000000000000000000000000000081526004016112bd90613e08565b60405180910390fd5b81819050848490501461130e576040517f08c379a000000000000000000000000000000000000000000000000000000000815260040161130590613f08565b60405180910390fd5b60008484905011611354576040517f08c379a000000000000000000000000000000000000000000000000000000000815260040161134b90613f28565b60405180910390fd5b60005b848490508110156113bf576113ac85858381811061137857611377614520565b5b905060200201602081019061138d9190613758565b8484848181106113a05761139f614520565b5b90506020020135612868565b80806113b790614479565b915050611357565b5050505050565b81819050848490501461140e576040517f08c379a000000000000000000000000000000000000000000000000000000000815260040161140590613f08565b60405180910390fd5b60008484905011611454576040517f08c379a000000000000000000000000000000000000000000000000000000000815260040161144b90613f28565b60405180910390fd5b60005b848490508110156114d65782828281811061147557611474614520565b5b9050602002013560cc600087878581811061149357611492614520565b5b90506020020160208101906114a89190613758565b60ff1660ff1681526020019081526020016000206000018190555080806114ce90614479565b915050611457565b5050505050565b60006065600084815260200190815260200160002060000160008373ffffffffffffffffffffffffffffffffffffffff1673ffffffffffffffffffffffffffffffffffffffff16815260200190815260200160002060009054906101000a900460ff16905092915050565b6000801b81565b600060cc60008360ff1660ff1681526020019081526020016000206001015442106115965760cc60008360ff1660ff16815260200190815260200160002060010154611598565b425b9050919050565b60008060ce60008560ff1660ff16815260200190815260200160002060008473ffffffffffffffffffffffffffffffffffffffff1673ffffffffffffffffffffffffffffffffffffffff168152602001908152602001600020905060cf60008560ff1660ff16815260200190815260200160002060008473ffffffffffffffffffffffffffffffffffffffff1673ffffffffffffffffffffffffffffffffffffffff16815260200190815260200160002054670de0b6b3a7640000826001015461166887611142565b61167291906142c3565b83600001546116819190614269565b61168b9190614238565b61169591906141e2565b91505092915050565b60d160009054906101000a900460ff1681565b60cf602052816000526040600020602052806000526040600020600091509150505481565b600063bc197c8160e01b9050979650505050505050565b818190508484905014611735576040517f08c379a000000000000000000000000000000000000000000000000000000000815260040161172c90613f08565b60405180910390fd5b6000848490501161177b576040517f08c379a000000000000000000000000000000000000000000000000000000000815260040161177290613f28565b60405180910390fd5b60005b848490508110156117e95782828281811061179c5761179b614520565b5b9050602002013560d060008787858181106117ba576117b9614520565b5b9050602002013581526020019081526020016000206002018190555080806117e190614479565b91505061177e565b5050505050565b600060019054906101000a900460ff166118185760008054906101000a900460ff1615611821565b611820612aa1565b5b611860576040517f08c379a000000000000000000000000000000000000000000000000000000000815260040161185790613e68565b60405180910390fd5b60008060019054906101000a900460ff1615905080156118b0576001600060016101000a81548160ff02191690831515021790555060016000806101000a81548160ff0219169083151502179055505b6118b8612ab2565b6118c0612b03565b6118cd6000801b33612b5c565b8260c960006101000a81548173ffffffffffffffffffffffffffffffffffffffff021916908373ffffffffffffffffffffffffffffffffffffffff1602179055508160ca60006101000a81548173ffffffffffffffffffffffffffffffffffffffff021916908373ffffffffffffffffffffffffffffffffffffffff1602179055508360cb60006101000a81548173ffffffffffffffffffffffffffffffffffffffff021916908373ffffffffffffffffffffffffffffffffffffffff160217905550600060d160006101000a81548160ff02191690831515021790555062278d0060cc6000600160ff16815260200190815260200160002060000181905550624f1a0060cc6000600260ff168152602001908152602001600020600001819055506276a70060cc6000600360ff168152602001908152602001600020600001819055508015611a325760008060016101000a81548160ff0219169083151502179055505b50505050565b60026097541415611a7e576040517f08c379a0000000000000000000000000000000000000000000000000000000008152600401611a7590613ee8565b60405180910390fd5b60026097819055508133600060cc60008460ff1660ff1681526020019081526020016000209050611aae83611142565b8160030181905550611abf8361154f565b8160040181905550600073ffffffffffffffffffffffffffffffffffffffff168273ffffffffffffffffffffffffffffffffffffffff1614611bc857600060ce60008560ff1660ff16815260200190815260200160002060008473ffffffffffffffffffffffffffffffffffffffff1673ffffffffffffffffffffffffffffffffffffffff1681526020019081526020016000209050611b5f848461159f565b60cf60008660ff1660ff16815260200190815260200160002060008573ffffffffffffffffffffffffffffffffffffffff1673ffffffffffffffffffffffffffffffffffffffff1681526020019081526020016000208190555081600301548160010181905550505b8460d160009054906101000a900460ff1680611c0a575060cc60008260ff1660ff16815260200190815260200160002060050160009054906101000a900460ff165b80611c31575060cc60008260ff1660ff168152602001908152602001600020600101544210155b611c70576040517f08c379a0000000000000000000000000000000000000000000000000000000008152600401611c6790613e28565b60405180910390fd5b848060400190611c8091906140db565b9050858060200190611c9291906140db565b905014611cd4576040517f08c379a0000000000000000000000000000000000000000000000000000000008152600401611ccb90613f28565b60405180910390fd5b6000611d02868060000190611ce991906140db565b9050878060200190611cfb91906140db565b9050612078565b905060008111611d47576040517f08c379a0000000000000000000000000000000000000000000000000000000008152600401611d3e90613f28565b60405180910390fd5b6000805b82811015611e4657878060000190611d6391906140db565b9050811015611db057611da2893360008b8060000190611d8391906140db565b86818110611d9457611d93614520565b5b905060200201356001612b6a565b82611dad91906141e2565b91505b878060200190611dc091906140db565b9050811015611e3357611e25893360018b8060200190611de091906140db565b86818110611df157611df0614520565b5b905060200201358c8060400190611e0891906140db565b87818110611e1957611e18614520565b5b90506020020135612b6a565b82611e3091906141e2565b91505b8080611e3e90614479565b915050611d4b565b508060ce60008a60ff1660ff16815260200190815260200160002060003373ffffffffffffffffffffffffffffffffffffffff1673ffffffffffffffffffffffffffffffffffffffff1681526020019081526020016000206000016000828254611eb091906142c3565b925050819055508060cd60008a60ff1660ff1681526020019081526020016000206000828254611ee091906142c3565b92505081905550611f013033898060000190611efc91906140db565b6122e3565b611f2b3033898060200190611f1691906140db565b8b8060400190611f2691906140db565b61248b565b50505050505060016097819055505050565b60d06020528060005260406000206000915090508060000154908060010160009054906101000a900473ffffffffffffffffffffffffffffffffffffffff16908060020154905083565b611f9082610d55565b611fa181611f9c612600565b612608565b611fab8383612786565b505050565b60cc6020528060005260406000206000915090508060000154908060010154908060020154908060030154908060040154908060050160009054906101000a900460ff16905086565b600063f23a6e6160e01b905095945050505050565b60007f01ffc9a7000000000000000000000000000000000000000000000000000000007bffffffffffffffffffffffffffffffffffffffffffffffffffffffff1916827bffffffffffffffffffffffffffffffffffffffffffffffffffffffff1916149050919050565b600081831015612088578161208a565b825b905092915050565b60008060d06000858152602001908152602001600020905060008160020154116120f1576040517f08c379a00000000000000000000000000000000000000000000000000000000081526004016120e890613de8565b60405180910390fd5b6000816000015414612138576040517f08c379a000000000000000000000000000000000000000000000000000000000815260040161212f90613dc8565b60405180910390fd5b600073ffffffffffffffffffffffffffffffffffffffff168160010160009054906101000a900473ffffffffffffffffffffffffffffffffffffffff1673ffffffffffffffffffffffffffffffffffffffff16146121cb576040517f08c379a00000000000000000000000000000000000000000000000000000000081526004016121c290613dc8565b60405180910390fd5b8660ff168160000181905550858160010160006101000a81548173ffffffffffffffffffffffffffffffffffffffff021916908373ffffffffffffffffffffffffffffffffffffffff1602179055508461227b578660ff163373ffffffffffffffffffffffffffffffffffffffff167f221ca413d8d18e65c5599f7daf24b39184fc90c306a03646abb69535a482d4b08660018960405161226e93929190613fba565b60405180910390a36122d2565b8660ff163373ffffffffffffffffffffffffffffffffffffffff167f221ca413d8d18e65c5599f7daf24b39184fc90c306a03646abb69535a482d4b08686896040516122c99392919061401a565b60405180910390a35b806002015491505095945050505050565b60008282905014156122f457612485565b60005b828290508110156124835760008060c960009054906101000a900473ffffffffffffffffffffffffffffffffffffffff1673ffffffffffffffffffffffffffffffffffffffff166342842e0e888888888881811061235857612357614520565b5b9050602002013560405160240161237193929190613cc8565b6040516020818303038152906040529060e01b6020820180517bffffffffffffffffffffffffffffffffffffffffffffffffffffffff83818316178352505050506040516123bf9190613bf2565b6000604051808303816000865af19150503d80600081146123fc576040519150601f19603f3d011682016040523d82523d6000602084013e612401565b606091505b509150915081801561242f575060008151148061242e57508080602001905181019061242d91906135cf565b5b5b61246e576040517f08c379a000000000000000000000000000000000000000000000000000000000815260040161246590613ec8565b60405180910390fd5b5050808061247b90614479565b9150506122f7565b505b50505050565b600084849050141561249c576125f8565b60008060ca60009054906101000a900473ffffffffffffffffffffffffffffffffffffffff1673ffffffffffffffffffffffffffffffffffffffff16632eb2c2d68989898989896040516024016124f896959493929190613c5e565b6040516020818303038152906040529060e01b6020820180517bffffffffffffffffffffffffffffffffffffffffffffffffffffffff83818316178352505050506040516125469190613bf2565b6000604051808303816000865af19150503d8060008114612583576040519150601f19603f3d011682016040523d82523d6000602084013e612588565b606091505b50915091508180156125b657506000815114806125b55750808060200190518101906125b491906135cf565b5b5b6125f5576040517f08c379a00000000000000000000000000000000000000000000000000000000081526004016125ec90613ec8565b60405180910390fd5b50505b505050505050565b600033905090565b61261282826114dd565b6126a1576126378173ffffffffffffffffffffffffffffffffffffffff166014612dbb565b6126458360001c6020612dbb565b604051602001612656929190613c09565b6040516020818303038152906040526040517f08c379a00000000000000000000000000000000000000000000000000000000081526004016126989190613d86565b60405180910390fd5b5050565b6126af82826114dd565b6127825760016065600084815260200190815260200160002060000160008373ffffffffffffffffffffffffffffffffffffffff1673ffffffffffffffffffffffffffffffffffffffff16815260200190815260200160002060006101000a81548160ff021916908315150217905550612727612600565b73ffffffffffffffffffffffffffffffffffffffff168173ffffffffffffffffffffffffffffffffffffffff16837f2f8788117e7eff1d82e926ec794901d17c78024a50270940304540a733656f0d60405160405180910390a45b5050565b61279082826114dd565b156128645760006065600084815260200190815260200160002060000160008373ffffffffffffffffffffffffffffffffffffffff1673ffffffffffffffffffffffffffffffffffffffff16815260200190815260200160002060006101000a81548160ff021916908315150217905550612809612600565b73ffffffffffffffffffffffffffffffffffffffff168173ffffffffffffffffffffffffffffffffffffffff16837ff6391f5c32d9c69d2a47ea670b442974b53935d1edc7fd64eb21e047a839171b60405160405180910390a45b5050565b8160008060cc60008460ff1660ff168152602001908152602001600020905061289083611142565b81600301819055506128a18361154f565b8160040181905550600073ffffffffffffffffffffffffffffffffffffffff168273ffffffffffffffffffffffffffffffffffffffff16146129aa57600060ce60008560ff1660ff16815260200190815260200160002060008473ffffffffffffffffffffffffffffffffffffffff1673ffffffffffffffffffffffffffffffffffffffff1681526020019081526020016000209050612941848461159f565b60cf60008660ff1660ff16815260200190815260200160002060008573ffffffffffffffffffffffffffffffffffffffff1673ffffffffffffffffffffffffffffffffffffffff1681526020019081526020016000208190555081600301548160010181905550505b600060cc60008760ff1660ff1681526020019081526020016000209050806001015442106129ef578060000154856129e29190614238565b8160020181905550612a3d565b6000428260010154612a0191906142c3565b90506000826002015482612a159190614269565b9050826000015481612a279190614238565b87612a3291906141e2565b836002018190555050505b428160040181905550806000015442612a5691906141e2565b81600101819055508560ff167f406a05ea037fb7046345ab4216653f82847e4f5d0307d115f620041c8593dd7c86604051612a919190613f68565b60405180910390a2505050505050565b6000612aac30612ff7565b15905090565b600060019054906101000a900460ff16612b01576040517f08c379a0000000000000000000000000000000000000000000000000000000008152600401612af890613ea8565b60405180910390fd5b565b600060019054906101000a900460ff16612b52576040517f08c379a0000000000000000000000000000000000000000000000000000000008152600401612b4990613ea8565b60405180910390fd5b6001609781905550565b612b6682826126a5565b5050565b60008060d0600085815260200190815260200160002090506000816002015411612bc9576040517f08c379a0000000000000000000000000000000000000000000000000000000008152600401612bc090613de8565b60405180910390fd5b8660ff16816000015414612c12576040517f08c379a0000000000000000000000000000000000000000000000000000000008152600401612c0990613e48565b60405180910390fd5b8573ffffffffffffffffffffffffffffffffffffffff168160010160009054906101000a900473ffffffffffffffffffffffffffffffffffffffff1673ffffffffffffffffffffffffffffffffffffffff1614612ca4576040517f08c379a0000000000000000000000000000000000000000000000000000000008152600401612c9b90613e88565b60405180910390fd5b6000816000018190555060008160010160006101000a81548173ffffffffffffffffffffffffffffffffffffffff021916908373ffffffffffffffffffffffffffffffffffffffff16021790555084612d53578660ff163373ffffffffffffffffffffffffffffffffffffffff167f2c99cd47e9e03c6a2dbdf93a6d0f387d972aae28cc1e36948bdd85c7c8e9cafb86600189604051612d4693929190613fba565b60405180910390a3612daa565b8660ff163373ffffffffffffffffffffffffffffffffffffffff167f2c99cd47e9e03c6a2dbdf93a6d0f387d972aae28cc1e36948bdd85c7c8e9cafb868689604051612da19392919061401a565b60405180910390a35b806002015491505095945050505050565b606060006002836002612dce9190614269565b612dd891906141e2565b67ffffffffffffffff811115612df157612df061454f565b5b6040519080825280601f01601f191660200182016040528015612e235781602001600182028036833780820191505090505b5090507f300000000000000000000000000000000000000000000000000000000000000081600081518110612e5b57612e5a614520565b5b60200101907effffffffffffffffffffffffffffffffffffffffffffffffffffffffffffff1916908160001a9053507f780000000000000000000000000000000000000000000000000000000000000081600181518110612ebf57612ebe614520565b5b60200101907effffffffffffffffffffffffffffffffffffffffffffffffffffffffffffff1916908160001a90535060006001846002612eff9190614269565b612f0991906141e2565b90505b6001811115612fa9577f3031323334353637383961626364656600000000000000000000000000000000600f861660108110612f4b57612f4a614520565b5b1a60f81b828281518110612f6257612f61614520565b5b60200101907effffffffffffffffffffffffffffffffffffffffffffffffffffffffffffff1916908160001a905350600485901c945080612fa29061441e565b9050612f0c565b5060008414612fed576040517f08c379a0000000000000000000000000000000000000000000000000000000008152600401612fe490613da8565b60405180910390fd5b8091505092915050565b600080823b905060008111915050919050565b600061301d61301884614163565b61413e565b905082815260208101848484011115613039576130386145a1565b5b6130448482856143dc565b509392505050565b60008135905061305b81614989565b92915050565b60008083601f84011261307757613076614583565b5b8235905067ffffffffffffffff8111156130945761309361457e565b5b6020830191508360208202830111156130b0576130af614597565b5b9250929050565b60008083601f8401126130cd576130cc614583565b5b8235905067ffffffffffffffff8111156130ea576130e961457e565b5b60208301915083602082028301111561310657613105614597565b5b9250929050565b60008083601f84011261312357613122614583565b5b8235905067ffffffffffffffff8111156131405761313f61457e565b5b60208301915083602082028301111561315c5761315b614597565b5b9250929050565b600081359050613172816149a0565b92915050565b600081519050613187816149a0565b92915050565b60008135905061319c816149b7565b92915050565b6000813590506131b1816149ce565b92915050565b600082601f8301126131cc576131cb614583565b5b81356131dc84826020860161300a565b91505092915050565b6000606082840312156131fb576131fa61458d565b5b81905092915050565b600081359050613213816149e5565b92915050565b600081359050613228816149fc565b92915050565b600060208284031215613244576132436145b0565b5b60006132528482850161304c565b91505092915050565b600080600060608486031215613274576132736145b0565b5b60006132828682870161304c565b93505060206132938682870161304c565b92505060406132a48682870161304c565b9150509250925092565b600080600080600080600060a0888a0312156132cd576132cc6145b0565b5b60006132db8a828b0161304c565b97505060206132ec8a828b0161304c565b965050604088013567ffffffffffffffff81111561330d5761330c6145a6565b5b6133198a828b016130b7565b9550955050606088013567ffffffffffffffff81111561333c5761333b6145a6565b5b6133488a828b016130b7565b9350935050608088013567ffffffffffffffff81111561336b5761336a6145a6565b5b6133778a828b016131b7565b91505092959891949750929550565b600080600080608085870312156133a05761339f6145b0565b5b60006133ae8782880161304c565b94505060206133bf8782880161304c565b93505060406133d087828801613204565b925050606085013567ffffffffffffffff8111156133f1576133f06145a6565b5b6133fd878288016131b7565b91505092959194509250565b600080600080600060a08688031215613425576134246145b0565b5b60006134338882890161304c565b95505060206134448882890161304c565b945050604061345588828901613204565b935050606061346688828901613204565b925050608086013567ffffffffffffffff811115613487576134866145a6565b5b613493888289016131b7565b9150509295509295909350565b600080600080604085870312156134ba576134b96145b0565b5b600085013567ffffffffffffffff8111156134d8576134d76145a6565b5b6134e4878288016130b7565b9450945050602085013567ffffffffffffffff811115613507576135066145a6565b5b613513878288016130b7565b925092505092959194509250565b6000806000806040858703121561353b5761353a6145b0565b5b600085013567ffffffffffffffff811115613559576135586145a6565b5b6135658782880161310d565b9450945050602085013567ffffffffffffffff811115613588576135876145a6565b5b613594878288016130b7565b925092505092959194509250565b6000602082840312156135b8576135b76145b0565b5b60006135c684828501613163565b91505092915050565b6000602082840312156135e5576135e46145b0565b5b60006135f384828501613178565b91505092915050565b600080600080600060608688031215613618576136176145b0565b5b600061362688828901613163565b955050602086013567ffffffffffffffff811115613647576136466145a6565b5b6136538882890161310d565b9450945050604086013567ffffffffffffffff811115613676576136756145a6565b5b61368288828901613061565b92509250509295509295909350565b6000602082840312156136a7576136a66145b0565b5b60006136b58482850161318d565b91505092915050565b600080604083850312156136d5576136d46145b0565b5b60006136e38582860161318d565b92505060206136f48582860161304c565b9150509250929050565b600060208284031215613714576137136145b0565b5b6000613722848285016131a2565b91505092915050565b600060208284031215613741576137406145b0565b5b600061374f84828501613204565b91505092915050565b60006020828403121561376e5761376d6145b0565b5b600061377c84828501613219565b91505092915050565b6000806040838503121561379c5761379b6145b0565b5b60006137aa85828601613219565b92505060206137bb8582860161304c565b9150509250929050565b600080604083850312156137dc576137db6145b0565b5b60006137ea85828601613219565b925050602083013567ffffffffffffffff81111561380b5761380a6145a6565b5b613817858286016131e5565b9150509250929050565b61382a816142f7565b82525050565b600061383c83856141aa565b93507f07ffffffffffffffffffffffffffffffffffffffffffffffffffffffffffffff83111561386f5761386e6145ab565b5b6020830292506138808385846143dc565b82840190509392505050565b61389581614309565b82525050565b6138a481614315565b82525050565b6138b38161431f565b82525050565b60006138c482614194565b6138ce81856141bb565b93506138de8185602086016143eb565b80840191505092915050565b6138f381614382565b82525050565b613902816143a6565b82525050565b613911816143ca565b82525050565b60006139228261419f565b61392c81856141c6565b935061393c8185602086016143eb565b613945816145b5565b840191505092915050565b600061395b8261419f565b61396581856141d7565b93506139758185602086016143eb565b80840191505092915050565b600061398e6020836141c6565b9150613999826145c6565b602082019050919050565b60006139b1601a836141c6565b91506139bc826145ef565b602082019050919050565b60006139d4601e836141c6565b91506139df82614618565b602082019050919050565b60006139f76023836141c6565b9150613a0282614641565b604082019050919050565b6000613a1a6021836141c6565b9150613a2582614690565b604082019050919050565b6000613a3d6022836141c6565b9150613a48826146df565b604082019050919050565b6000613a60602e836141c6565b9150613a6b8261472e565b604082019050919050565b6000613a83601f836141c6565b9150613a8e8261477d565b602082019050919050565b6000613aa66000836141c6565b9150613ab1826147a6565b600082019050919050565b6000613ac9602b836141c6565b9150613ad4826147a9565b604082019050919050565b6000613aec6025836141c6565b9150613af7826147f8565b604082019050919050565b6000613b0f6017836141d7565b9150613b1a82614847565b601782019050919050565b6000613b32601f836141c6565b9150613b3d82614870565b602082019050919050565b6000613b556021836141c6565b9150613b6082614899565b604082019050919050565b6000613b786011836141d7565b9150613b83826148e8565b601182019050919050565b6000613b9b6020836141c6565b9150613ba682614911565b602082019050919050565b6000613bbe602f836141c6565b9150613bc98261493a565b604082019050919050565b613bdd8161436b565b82525050565b613bec81614375565b82525050565b6000613bfe82846138b9565b915081905092915050565b6000613c1482613b02565b9150613c208285613950565b9150613c2b82613b6b565b9150613c378284613950565b91508190509392505050565b6000602082019050613c586000830184613821565b92915050565b600060a082019050613c736000830189613821565b613c806020830188613821565b8181036040830152613c93818688613830565b90508181036060830152613ca8818486613830565b90508181036080830152613cbb81613a99565b9050979650505050505050565b6000606082019050613cdd6000830186613821565b613cea6020830185613821565b613cf76040830184613bd4565b949350505050565b6000602082019050613d14600083018461388c565b92915050565b6000602082019050613d2f600083018461389b565b92915050565b6000602082019050613d4a60008301846138aa565b92915050565b6000602082019050613d6560008301846138ea565b92915050565b6000602082019050613d8060008301846138f9565b92915050565b60006020820190508181036000830152613da08184613917565b905092915050565b60006020820190508181036000830152613dc181613981565b9050919050565b60006020820190508181036000830152613de1816139a4565b9050919050565b60006020820190508181036000830152613e01816139c7565b9050919050565b60006020820190508181036000830152613e21816139ea565b9050919050565b60006020820190508181036000830152613e4181613a0d565b9050919050565b60006020820190508181036000830152613e6181613a30565b9050919050565b60006020820190508181036000830152613e8181613a53565b9050919050565b60006020820190508181036000830152613ea181613a76565b9050919050565b60006020820190508181036000830152613ec181613abc565b9050919050565b60006020820190508181036000830152613ee181613adf565b9050919050565b60006020820190508181036000830152613f0181613b25565b9050919050565b60006020820190508181036000830152613f2181613b48565b9050919050565b60006020820190508181036000830152613f4181613b8e565b9050919050565b60006020820190508181036000830152613f6181613bb1565b9050919050565b6000602082019050613f7d6000830184613bd4565b92915050565b6000606082019050613f986000830186613bd4565b613fa56020830185613821565b613fb26040830184613bd4565b949350505050565b6000606082019050613fcf6000830186613bd4565b613fdc6020830185613908565b613fe9604083018461388c565b949350505050565b60006040820190506140066000830185613bd4565b6140136020830184613bd4565b9392505050565b600060608201905061402f6000830186613bd4565b61403c6020830185613bd4565b614049604083018461388c565b949350505050565b600060c0820190506140666000830189613bd4565b6140736020830188613bd4565b6140806040830187613bd4565b61408d6060830186613bd4565b61409a6080830185613bd4565b6140a760a083018461388c565b979650505050505050565b60006040820190506140c76000830185613be3565b6140d4602083018461388c565b9392505050565b600080833560016020038436030381126140f8576140f7614592565b5b80840192508235915067ffffffffffffffff82111561411a57614119614588565b5b6020830192506020820236038313156141365761413561459c565b5b509250929050565b6000614148614159565b90506141548282614448565b919050565b6000604051905090565b600067ffffffffffffffff82111561417e5761417d61454f565b5b614187826145b5565b9050602081019050919050565b600081519050919050565b600081519050919050565b600082825260208201905092915050565b600081905092915050565b600082825260208201905092915050565b600081905092915050565b60006141ed8261436b565b91506141f88361436b565b9250827fffffffffffffffffffffffffffffffffffffffffffffffffffffffffffffffff0382111561422d5761422c6144c2565b5b828201905092915050565b60006142438261436b565b915061424e8361436b565b92508261425e5761425d6144f1565b5b828204905092915050565b60006142748261436b565b915061427f8361436b565b9250817fffffffffffffffffffffffffffffffffffffffffffffffffffffffffffffffff04831182151516156142b8576142b76144c2565b5b828202905092915050565b60006142ce8261436b565b91506142d98361436b565b9250828210156142ec576142eb6144c2565b5b828203905092915050565b60006143028261434b565b9050919050565b60008115159050919050565b6000819050919050565b60007fffffffff0000000000000000000000000000000000000000000000000000000082169050919050565b600073ffffffffffffffffffffffffffffffffffffffff82169050919050565b6000819050919050565b600060ff82169050919050565b600061438d82614394565b9050919050565b600061439f8261434b565b9050919050565b60006143b1826143b8565b9050919050565b60006143c38261434b565b9050919050565b60006143d58261436b565b9050919050565b82818337600083830152505050565b60005b838110156144095780820151818401526020810190506143ee565b83811115614418576000848401525b50505050565b60006144298261436b565b9150600082141561443d5761443c6144c2565b5b600182039050919050565b614451826145b5565b810181811067ffffffffffffffff821117156144705761446f61454f565b5b80604052505050565b60006144848261436b565b91507fffffffffffffffffffffffffffffffffffffffffffffffffffffffffffffffff8214156144b7576144b66144c2565b5b600182019050919050565b7f4e487b7100000000000000000000000000000000000000000000000000000000600052601160045260246000fd5b7f4e487b7100000000000000000000000000000000000000000000000000000000600052601260045260246000fd5b7f4e487b7100000000000000000000000000000000000000000000000000000000600052603260045260246000fd5b7f4e487b7100000000000000000000000000000000000000000000000000000000600052604160045260246000fd5b600080fd5b600080fd5b600080fd5b600080fd5b600080fd5b600080fd5b600080fd5b600080fd5b600080fd5b600080fd5b600080fd5b6000601f19601f8301169050919050565b7f537472696e67733a20686578206c656e67746820696e73756666696369656e74600082015250565b7f4476695374616b696e673a20616c7265616479207374616b6564000000000000600082015250565b7f4476695374616b696e673a20696e76616c696420746f6b656e20646174610000600082015250565b7f4476695374616b696e673a206e6f74207265776172647344697374726962757460008201527f696f6e0000000000000000000000000000000000000000000000000000000000602082015250565b7f4476695374616b696e673a206e6f7420616c6c6f7720746f207769746864726160008201527f7700000000000000000000000000000000000000000000000000000000000000602082015250565b7f4476695374616b696e673a20696e76616c696420746f6b656e2063616d70616960008201527f676e000000000000000000000000000000000000000000000000000000000000602082015250565b7f496e697469616c697a61626c653a20636f6e747261637420697320616c72656160008201527f647920696e697469616c697a6564000000000000000000000000000000000000602082015250565b7f4476695374616b696e673a20696e76616c696420746f6b656e206f776e657200600082015250565b50565b7f496e697469616c697a61626c653a20636f6e7472616374206973206e6f74206960008201527f6e697469616c697a696e67000000000000000000000000000000000000000000602082015250565b7f4476695374616b696e673a206261746368207472616e7366657246726f6d206660008201527f61696c6564000000000000000000000000000000000000000000000000000000602082015250565b7f416363657373436f6e74726f6c3a206163636f756e7420000000000000000000600082015250565b7f5265656e7472616e637947756172643a207265656e7472616e742063616c6c00600082015250565b7f4476695374616b696e673a20696e76616c696420706172616d73206c656e677460008201527f6800000000000000000000000000000000000000000000000000000000000000602082015250565b7f206973206d697373696e6720726f6c6520000000000000000000000000000000600082015250565b7f4476695374616b696e673a20696e76616c696420706172616d206c656e677468600082015250565b7f416363657373436f6e74726f6c3a2063616e206f6e6c792072656e6f756e636560008201527f20726f6c657320666f722073656c660000000000000000000000000000000000602082015250565b614992816142f7565b811461499d57600080fd5b50565b6149a981614309565b81146149b457600080fd5b50565b6149c081614315565b81146149cb57600080fd5b50565b6149d78161431f565b81146149e257600080fd5b50565b6149ee8161436b565b81146149f957600080fd5b50565b614a0581614375565b8114614a1057600080fd5b5056fea2646970667358221220ab4da6139690daf499fafe7ac4d06b4252989ff9b577dc0a2b2caa21099819ad64736f6c63430008060033",
  "linkReferences": {},
  "deployedLinkReferences": {}
}