{
  "_format": "hh-sol-artifact-1",
  "contractName": "DvisionStakingUpgradeable",
  "sourceName": "contracts/DvisionStakingUpgradeable.sol",
  "abi": [
    {
      "anonymous": false,
      "inputs": [
        {
          "indexed": true,
          "internalType": "address",
          "name": "user",
          "type": "address"
        },
        {
          "indexed": true,
          "internalType": "uint8",
          "name": "campaignId",
          "type": "uint8"
        },
        {
          "indexed": false,
          "internalType": "uint256",
          "name": "amount",
          "type": "uint256"
        }
      ],
      "name": "ClaimedReward",
      "type": "event"
    },
    {
      "anonymous": false,
      "inputs": [
        {
          "indexed": true,
          "internalType": "address",
          "name": "user",
          "type": "address"
        },
        {
          "indexed": true,
          "internalType": "uint8",
          "name": "campaignId",
          "type": "uint8"
        },
        {
          "indexed": false,
          "internalType": "uint256",
          "name": "tokenId",
          "type": "uint256"
        },
        {
          "indexed": false,
          "internalType": "uint256",
          "name": "amount",
          "type": "uint256"
        },
        {
          "indexed": false,
          "internalType": "bool",
          "name": "isERC1155",
          "type": "bool"
        }
      ],
      "name": "Deposited",
      "type": "event"
    },
    {
      "anonymous": false,
      "inputs": [
        {
          "indexed": true,
          "internalType": "uint8",
          "name": "campaignId",
          "type": "uint8"
        },
        {
          "indexed": false,
          "internalType": "uint256",
          "name": "reward",
          "type": "uint256"
        }
      ],
      "name": "RewardAdded",
      "type": "event"
    },
    {
      "anonymous": false,
      "inputs": [
        {
          "indexed": true,
          "internalType": "bytes32",
          "name": "role",
          "type": "bytes32"
        },
        {
          "indexed": true,
          "internalType": "bytes32",
          "name": "previousAdminRole",
          "type": "bytes32"
        },
        {
          "indexed": true,
          "internalType": "bytes32",
          "name": "newAdminRole",
          "type": "bytes32"
        }
      ],
      "name": "RoleAdminChanged",
      "type": "event"
    },
    {
      "anonymous": false,
      "inputs": [
        {
          "indexed": true,
          "internalType": "bytes32",
          "name": "role",
          "type": "bytes32"
        },
        {
          "indexed": true,
          "internalType": "address",
          "name": "account",
          "type": "address"
        },
        {
          "indexed": true,
          "internalType": "address",
          "name": "sender",
          "type": "address"
        }
      ],
      "name": "RoleGranted",
      "type": "event"
    },
    {
      "anonymous": false,
      "inputs": [
        {
          "indexed": true,
          "internalType": "bytes32",
          "name": "role",
          "type": "bytes32"
        },
        {
          "indexed": true,
          "internalType": "address",
          "name": "account",
          "type": "address"
        },
        {
          "indexed": true,
          "internalType": "address",
          "name": "sender",
          "type": "address"
        }
      ],
      "name": "RoleRevoked",
      "type": "event"
    },
    {
      "anonymous": false,
      "inputs": [
        {
          "indexed": true,
          "internalType": "address",
          "name": "user",
          "type": "address"
        },
        {
          "indexed": true,
          "internalType": "uint8",
          "name": "campaignId",
          "type": "uint8"
        },
        {
          "indexed": false,
          "internalType": "uint256",
          "name": "tokenId",
          "type": "uint256"
        },
        {
          "indexed": false,
          "internalType": "uint256",
          "name": "amount",
          "type": "uint256"
        },
        {
          "indexed": false,
          "internalType": "bool",
          "name": "isERC1155",
          "type": "bool"
        }
      ],
      "name": "Withdrawn",
      "type": "event"
    },
    {
      "inputs": [],
      "name": "DEFAULT_ADMIN_ROLE",
      "outputs": [
        {
          "internalType": "bytes32",
          "name": "",
          "type": "bytes32"
        }
      ],
      "stateMutability": "view",
      "type": "function"
    },
    {
      "inputs": [
        {
          "internalType": "uint8",
          "name": "",
          "type": "uint8"
        }
      ],
      "name": "campaignInfo",
      "outputs": [
        {
          "internalType": "uint256",
          "name": "duration",
          "type": "uint256"
        },
        {
          "internalType": "uint256",
          "name": "timestampFinish",
          "type": "uint256"
        },
        {
          "internalType": "uint256",
          "name": "rewardRate",
          "type": "uint256"
        },
        {
          "internalType": "uint256",
          "name": "rewardPerTokenStored",
          "type": "uint256"
        },
        {
          "internalType": "uint256",
          "name": "lastUpdateTime",
          "type": "uint256"
        }
      ],
      "stateMutability": "view",
      "type": "function"
    },
    {
      "inputs": [
        {
          "internalType": "uint8",
          "name": "campaignId",
          "type": "uint8"
        }
      ],
      "name": "claimReward",
      "outputs": [],
      "stateMutability": "nonpayable",
      "type": "function"
    },
    {
      "inputs": [
        {
          "internalType": "uint8",
          "name": "campaignId",
          "type": "uint8"
        },
        {
          "internalType": "uint256[]",
          "name": "erc721TokenIds",
          "type": "uint256[]"
        },
        {
          "internalType": "uint256[]",
          "name": "erc1155TokenIds",
          "type": "uint256[]"
        },
        {
          "internalType": "uint256[]",
          "name": "erc1155Amounts",
          "type": "uint256[]"
        }
      ],
      "name": "deposit",
      "outputs": [],
      "stateMutability": "nonpayable",
      "type": "function"
    },
    {
      "inputs": [],
      "name": "erc1155Token",
      "outputs": [
        {
          "internalType": "contract IERC1155Upgradeable",
          "name": "",
          "type": "address"
        }
      ],
      "stateMutability": "view",
      "type": "function"
    },
    {
      "inputs": [],
      "name": "erc721Token",
      "outputs": [
        {
          "internalType": "contract IERC721Upgradeable",
          "name": "",
          "type": "address"
        }
      ],
      "stateMutability": "view",
      "type": "function"
    },
    {
      "inputs": [
        {
          "internalType": "uint8",
          "name": "campaignId",
          "type": "uint8"
        },
        {
          "internalType": "address",
          "name": "account",
          "type": "address"
        }
      ],
      "name": "getCampaignEarned",
      "outputs": [
        {
          "internalType": "uint256",
          "name": "",
          "type": "uint256"
        }
      ],
      "stateMutability": "view",
      "type": "function"
    },
    {
      "inputs": [
        {
          "internalType": "bytes32",
          "name": "role",
          "type": "bytes32"
        }
      ],
      "name": "getRoleAdmin",
      "outputs": [
        {
          "internalType": "bytes32",
          "name": "",
          "type": "bytes32"
        }
      ],
      "stateMutability": "view",
      "type": "function"
    },
    {
      "inputs": [
        {
          "internalType": "bytes32",
          "name": "role",
          "type": "bytes32"
        },
        {
          "internalType": "address",
          "name": "account",
          "type": "address"
        }
      ],
      "name": "grantRole",
      "outputs": [],
      "stateMutability": "nonpayable",
      "type": "function"
    },
    {
      "inputs": [
        {
          "internalType": "bytes32",
          "name": "role",
          "type": "bytes32"
        },
        {
          "internalType": "address",
          "name": "account",
          "type": "address"
        }
      ],
      "name": "hasRole",
      "outputs": [
        {
          "internalType": "bool",
          "name": "",
          "type": "bool"
        }
      ],
      "stateMutability": "view",
      "type": "function"
    },
    {
      "inputs": [
        {
          "internalType": "address",
          "name": "_rewardsDistribution",
          "type": "address"
        },
        {
          "internalType": "address",
          "name": "_erc721Token",
          "type": "address"
        },
        {
          "internalType": "address",
          "name": "_erc1155Token",
          "type": "address"
        }
      ],
      "name": "initialize",
      "outputs": [],
      "stateMutability": "nonpayable",
      "type": "function"
    },
    {
      "inputs": [
        {
          "internalType": "uint8",
          "name": "campaignId",
          "type": "uint8"
        }
      ],
      "name": "lastTimeRewardApplicable",
      "outputs": [
        {
          "internalType": "uint256",
          "name": "",
          "type": "uint256"
        }
      ],
      "stateMutability": "view",
      "type": "function"
    },
    {
      "inputs": [
        {
          "internalType": "uint8[]",
          "name": "campaignIds",
          "type": "uint8[]"
        },
        {
          "internalType": "uint256[]",
          "name": "amounts",
          "type": "uint256[]"
        }
      ],
      "name": "notifyRewardAmount",
      "outputs": [],
      "stateMutability": "nonpayable",
      "type": "function"
    },
    {
      "inputs": [
        {
          "internalType": "address",
          "name": "",
          "type": "address"
        },
        {
          "internalType": "address",
          "name": "",
          "type": "address"
        },
        {
          "internalType": "uint256[]",
          "name": "",
          "type": "uint256[]"
        },
        {
          "internalType": "uint256[]",
          "name": "",
          "type": "uint256[]"
        },
        {
          "internalType": "bytes",
          "name": "",
          "type": "bytes"
        }
      ],
      "name": "onERC1155BatchReceived",
      "outputs": [
        {
          "internalType": "bytes4",
          "name": "",
          "type": "bytes4"
        }
      ],
      "stateMutability": "nonpayable",
      "type": "function"
    },
    {
      "inputs": [
        {
          "internalType": "address",
          "name": "",
          "type": "address"
        },
        {
          "internalType": "address",
          "name": "",
          "type": "address"
        },
        {
          "internalType": "uint256",
          "name": "",
          "type": "uint256"
        },
        {
          "internalType": "uint256",
          "name": "",
          "type": "uint256"
        },
        {
          "internalType": "bytes",
          "name": "",
          "type": "bytes"
        }
      ],
      "name": "onERC1155Received",
      "outputs": [
        {
          "internalType": "bytes4",
          "name": "",
          "type": "bytes4"
        }
      ],
      "stateMutability": "nonpayable",
      "type": "function"
    },
    {
      "inputs": [
        {
          "internalType": "address",
          "name": "",
          "type": "address"
        },
        {
          "internalType": "address",
          "name": "",
          "type": "address"
        },
        {
          "internalType": "uint256",
          "name": "",
          "type": "uint256"
        },
        {
          "internalType": "bytes",
          "name": "",
          "type": "bytes"
        }
      ],
      "name": "onERC721Received",
      "outputs": [
        {
          "internalType": "bytes4",
          "name": "",
          "type": "bytes4"
        }
      ],
      "stateMutability": "nonpayable",
      "type": "function"
    },
    {
      "inputs": [
        {
          "internalType": "bytes32",
          "name": "role",
          "type": "bytes32"
        },
        {
          "internalType": "address",
          "name": "account",
          "type": "address"
        }
      ],
      "name": "renounceRole",
      "outputs": [],
      "stateMutability": "nonpayable",
      "type": "function"
    },
    {
      "inputs": [
        {
          "internalType": "bytes32",
          "name": "role",
          "type": "bytes32"
        },
        {
          "internalType": "address",
          "name": "account",
          "type": "address"
        }
      ],
      "name": "revokeRole",
      "outputs": [],
      "stateMutability": "nonpayable",
      "type": "function"
    },
    {
      "inputs": [
        {
          "internalType": "uint8",
          "name": "campaignId",
          "type": "uint8"
        }
      ],
      "name": "rewardPerToken",
      "outputs": [
        {
          "internalType": "uint256",
          "name": "",
          "type": "uint256"
        }
      ],
      "stateMutability": "view",
      "type": "function"
    },
    {
      "inputs": [
        {
          "internalType": "uint8",
          "name": "",
          "type": "uint8"
        },
        {
          "internalType": "address",
          "name": "",
          "type": "address"
        }
      ],
      "name": "rewards",
      "outputs": [
        {
          "internalType": "uint256",
          "name": "",
          "type": "uint256"
        }
      ],
      "stateMutability": "view",
      "type": "function"
    },
    {
      "inputs": [],
      "name": "rewardsDistribution",
      "outputs": [
        {
          "internalType": "address",
          "name": "",
          "type": "address"
        }
      ],
      "stateMutability": "view",
      "type": "function"
    },
    {
      "inputs": [
        {
          "internalType": "uint8[]",
          "name": "campaignIds",
          "type": "uint8[]"
        },
        {
          "internalType": "uint256[]",
          "name": "durations",
          "type": "uint256[]"
        }
      ],
      "name": "setCampaigns",
      "outputs": [],
      "stateMutability": "nonpayable",
      "type": "function"
    },
    {
      "inputs": [
        {
          "internalType": "uint256[]",
          "name": "tokenIds",
          "type": "uint256[]"
        },
        {
          "internalType": "uint256[]",
          "name": "hashrates",
          "type": "uint256[]"
        }
      ],
      "name": "setHashrate",
      "outputs": [],
      "stateMutability": "nonpayable",
      "type": "function"
    },
    {
      "inputs": [
        {
          "internalType": "address",
          "name": "_rewardsDistribution",
          "type": "address"
        }
      ],
      "name": "setRewardsDistribution",
      "outputs": [],
      "stateMutability": "nonpayable",
      "type": "function"
    },
    {
      "inputs": [
        {
          "internalType": "bytes4",
          "name": "interfaceId",
          "type": "bytes4"
        }
      ],
      "name": "supportsInterface",
      "outputs": [
        {
          "internalType": "bool",
          "name": "",
          "type": "bool"
        }
      ],
      "stateMutability": "view",
      "type": "function"
    },
    {
      "inputs": [
        {
          "internalType": "uint256",
          "name": "",
          "type": "uint256"
        }
      ],
      "name": "tokenInfo",
      "outputs": [
        {
          "internalType": "uint256",
          "name": "campaignId",
          "type": "uint256"
        },
        {
          "internalType": "address",
          "name": "owner",
          "type": "address"
        },
        {
          "internalType": "uint256",
          "name": "hashrate",
          "type": "uint256"
        }
      ],
      "stateMutability": "view",
      "type": "function"
    },
    {
      "inputs": [
        {
          "internalType": "uint8",
          "name": "campaignId",
          "type": "uint8"
        }
      ],
      "name": "totalCampaignHashrate",
      "outputs": [
        {
          "internalType": "uint256",
          "name": "",
          "type": "uint256"
        }
      ],
      "stateMutability": "view",
      "type": "function"
    },
    {
      "inputs": [
        {
          "internalType": "uint8",
          "name": "",
          "type": "uint8"
        },
        {
          "internalType": "address",
          "name": "",
          "type": "address"
        }
      ],
      "name": "userInfo",
      "outputs": [
        {
          "internalType": "uint256",
          "name": "hashrate",
          "type": "uint256"
        },
        {
          "internalType": "uint256",
          "name": "userRewardPerTokenPaid",
          "type": "uint256"
        }
      ],
      "stateMutability": "view",
      "type": "function"
    },
    {
      "inputs": [
        {
          "internalType": "uint8",
          "name": "campaignId",
          "type": "uint8"
        },
        {
          "internalType": "uint256[]",
          "name": "erc721TokenIds",
          "type": "uint256[]"
        },
        {
          "internalType": "uint256[]",
          "name": "erc1155TokenIds",
          "type": "uint256[]"
        },
        {
          "internalType": "uint256[]",
          "name": "erc1155Amounts",
          "type": "uint256[]"
        }
      ],
      "name": "withdraw",
      "outputs": [],
      "stateMutability": "nonpayable",
      "type": "function"
    }
  ],
  "bytecode": "0x608060405234801561001057600080fd5b506144e5806100206000396000f3fe608060405234801561001057600080fd5b50600436106101cf5760003560e01c806378b0ccc711610104578063b9df51a7116100a2578063cc33c87511610071578063cc33c87514610575578063d547741f146105a7578063e0a795b0146105c3578063f23a6e61146105f7576101cf565b8063b9df51a7146104dd578063bc197c811461050d578063c06a95211461053d578063c0c53b8b14610559576101cf565b8063a217fddf116100de578063a217fddf14610443578063a2df921214610461578063ab3baa7414610491578063af0cd3c1146104ad576101cf565b806378b0ccc7146103db5780637cc95e0e146103f757806391d1485414610413576101cf565b806337b7dafd116101715780635f2d6bcd1161014b5780635f2d6bcd14610340578063689f16231461035e5780636e6331d31461037a57806376fa17d2146103aa576101cf565b806337b7dafd146102d65780633fc6df6e146103065780635bfc4e1d14610324576101cf565b806321f42268116101ad57806321f4226814610250578063248a9ca31461026e5780632f2ff15d1461029e57806336568abe146102ba576101cf565b806301ffc9a7146101d4578063150b7a02146102045780631976214314610234575b600080fd5b6101ee60048036038101906101e99190613210565b610627565b6040516101fb919061386f565b60405180910390f35b61021e60048036038101906102199190612f5a565b6106a1565b60405161022b91906138a5565b60405180910390f35b61024e60048036038101906102499190612e02565b6106b5565b005b6102586106f9565b60405161026591906138c0565b60405180910390f35b610288600480360381019061028391906131a3565b61071f565b604051610295919061388a565b60405180910390f35b6102b860048036038101906102b391906131d0565b61073f565b005b6102d460048036038101906102cf91906131d0565b610768565b005b6102f060048036038101906102eb919061326a565b6107eb565b6040516102fd9190613ad8565b60405180910390f35b61030e61080e565b60405161031b91906137b3565b60405180910390f35b61033e600480360381019061033991906132d7565b610834565b005b610348610c57565b60405161035591906138db565b60405180910390f35b6103786004803603810190610373919061326a565b610c7d565b005b610394600480360381019061038f919061326a565b610f2f565b6040516103a19190613ad8565b60405180910390f35b6103c460048036038101906103bf9190613297565b610ff2565b6040516103d2929190613b61565b60405180910390f35b6103f560048036038101906103f091906130f5565b611023565b005b610411600480360381019061040c91906130f5565b6111b3565b005b61042d600480360381019061042891906131d0565b6112ca565b60405161043a919061386f565b60405180910390f35b61044b611335565b604051610458919061388a565b60405180910390f35b61047b6004803603810190610476919061326a565b61133c565b6040516104889190613ad8565b60405180910390f35b6104ab60048036038101906104a691906132d7565b61138c565b005b6104c760048036038101906104c29190613297565b61175d565b6040516104d49190613ad8565b60405180910390f35b6104f760048036038101906104f29190613297565b61185c565b6040516105049190613ad8565b60405180910390f35b61052760048036038101906105229190612e82565b611881565b60405161053491906138a5565b60405180910390f35b61055760048036038101906105529190613074565b611898565b005b610573600480360381019061056e9190612e2f565b61199b565b005b61058f600480360381019061058a919061323d565b611bc8565b60405161059e93929190613af3565b60405180910390f35b6105c160048036038101906105bc91906131d0565b611c12565b005b6105dd60048036038101906105d8919061326a565b611c3b565b6040516105ee959493929190613bc1565b60405180910390f35b610611600480360381019061060c9190612fdd565b611c71565b60405161061e91906138a5565b60405180910390f35b60007f7965db0b000000000000000000000000000000000000000000000000000000007bffffffffffffffffffffffffffffffffffffffffffffffffffffffff1916827bffffffffffffffffffffffffffffffffffffffffffffffffffffffff1916148061069a575061069982611c86565b5b9050919050565b600063150b7a0260e01b9050949350505050565b8060cb60006101000a81548173ffffffffffffffffffffffffffffffffffffffff021916908373ffffffffffffffffffffffffffffffffffffffff16021790555050565b60ca60009054906101000a900473ffffffffffffffffffffffffffffffffffffffff1681565b600060656000838152602001908152602001600020600101549050919050565b6107488261071f565b61075981610754611cf0565b611cf8565b6107638383611d95565b505050565b610770611cf0565b73ffffffffffffffffffffffffffffffffffffffff168173ffffffffffffffffffffffffffffffffffffffff16146107dd576040517f08c379a00000000000000000000000000000000000000000000000000000000081526004016107d490613ab8565b60405180910390fd5b6107e78282611e76565b5050565b600060cd60008360ff1660ff168152602001908152602001600020549050919050565b60cb60009054906101000a900473ffffffffffffffffffffffffffffffffffffffff1681565b6002609754141561087a576040517f08c379a000000000000000000000000000000000000000000000000000000000815260040161087190613a58565b60405180910390fd5b60026097819055508633600060cc60008460ff1660ff16815260200190815260200160002090506108aa83610f2f565b81600301819055506108bb8361133c565b8160040181905550600073ffffffffffffffffffffffffffffffffffffffff168273ffffffffffffffffffffffffffffffffffffffff16146109c457600060ce60008560ff1660ff16815260200190815260200160002060008473ffffffffffffffffffffffffffffffffffffffff1673ffffffffffffffffffffffffffffffffffffffff168152602001908152602001600020905061095b848461175d565b60cf60008660ff1660ff16815260200190815260200160002060008573ffffffffffffffffffffffffffffffffffffffff1673ffffffffffffffffffffffffffffffffffffffff1681526020019081526020016000208190555081600301548160010181905550505b60cc60008b60ff1660ff16815260200190815260200160002060010154421015610a23576040517f08c379a0000000000000000000000000000000000000000000000000000000008152600401610a1a906139f8565b60405180910390fd5b848490508787905014610a6b576040517f08c379a0000000000000000000000000000000000000000000000000000000008152600401610a6290613a98565b60405180910390fd5b6000878790508a8a905011610a835787879050610a88565b898990505b905060008111610acd576040517f08c379a0000000000000000000000000000000000000000000000000000000008152600401610ac490613a98565b60405180910390fd5b6000805b82811015610b86578b8b9050811015610b1a57610b0c8d3360008f8f86818110610afe57610afd613ff6565b5b905060200201356001611f58565b82610b179190613cb8565b91505b89899050811015610b7357610b658d3360018d8d86818110610b3f57610b3e613ff6565b5b905060200201358c8c87818110610b5957610b58613ff6565b5b90506020020135611f58565b82610b709190613cb8565b91505b8080610b7e90613f4f565b915050610ad1565b508060ce60008e60ff1660ff16815260200190815260200160002060003373ffffffffffffffffffffffffffffffffffffffff1673ffffffffffffffffffffffffffffffffffffffff1681526020019081526020016000206000016000828254610bf09190613d99565b925050819055508060cd60008e60ff1660ff1681526020019081526020016000206000828254610c209190613d99565b92505081905550610c3330338d8d6121a9565b610c4130338b8b8b8b612351565b5050505050600160978190555050505050505050565b60c960009054906101000a900473ffffffffffffffffffffffffffffffffffffffff1681565b60026097541415610cc3576040517f08c379a0000000000000000000000000000000000000000000000000000000008152600401610cba90613a58565b60405180910390fd5b60026097819055508033600060cc60008460ff1660ff1681526020019081526020016000209050610cf383610f2f565b8160030181905550610d048361133c565b8160040181905550600073ffffffffffffffffffffffffffffffffffffffff168273ffffffffffffffffffffffffffffffffffffffff1614610e0d57600060ce60008560ff1660ff16815260200190815260200160002060008473ffffffffffffffffffffffffffffffffffffffff1673ffffffffffffffffffffffffffffffffffffffff1681526020019081526020016000209050610da4848461175d565b60cf60008660ff1660ff16815260200190815260200160002060008573ffffffffffffffffffffffffffffffffffffffff1673ffffffffffffffffffffffffffffffffffffffff1681526020019081526020016000208190555081600301548160010181905550505b600060cf60008660ff1660ff16815260200190815260200160002060003373ffffffffffffffffffffffffffffffffffffffff1673ffffffffffffffffffffffffffffffffffffffff1681526020019081526020016000205490506000811115610f2057600060cf60008760ff1660ff16815260200190815260200160002060003373ffffffffffffffffffffffffffffffffffffffff1673ffffffffffffffffffffffffffffffffffffffff168152602001908152602001600020819055508460ff163373ffffffffffffffffffffffffffffffffffffffff167fb512db94d06053e78b39848053a3f1e8ccd4076797d95316b9d0b69aa0f8050c83604051610f179190613ad8565b60405180910390a35b50505050600160978190555050565b60008060cc60008460ff1660ff1681526020019081526020016000209050600060cd60008560ff1660ff168152602001908152602001600020541415610f7c578060030154915050610fed565b60cd60008460ff1660ff16815260200190815260200160002054670de0b6b3a764000082600201548360040154610fb28761133c565b610fbc9190613d99565b610fc69190613d3f565b610fd09190613d3f565b610fda9190613d0e565b8160030154610fe99190613cb8565b9150505b919050565b60ce602052816000526040600020602052806000526040600020600091509150508060000154908060010154905082565b60cb60009054906101000a900473ffffffffffffffffffffffffffffffffffffffff1673ffffffffffffffffffffffffffffffffffffffff163373ffffffffffffffffffffffffffffffffffffffff16146110b3576040517f08c379a00000000000000000000000000000000000000000000000000000000081526004016110aa90613978565b60405180910390fd5b8181905084849050146110fb576040517f08c379a00000000000000000000000000000000000000000000000000000000081526004016110f290613a78565b60405180910390fd5b60008484905011611141576040517f08c379a000000000000000000000000000000000000000000000000000000000815260040161113890613a98565b60405180910390fd5b60005b848490508110156111ac5761119985858381811061116557611164613ff6565b5b905060200201602081019061117a919061326a565b84848481811061118d5761118c613ff6565b5b905060200201356124c6565b80806111a490613f4f565b915050611144565b5050505050565b8181905084849050146111fb576040517f08c379a00000000000000000000000000000000000000000000000000000000081526004016111f290613a78565b60405180910390fd5b60008484905011611241576040517f08c379a000000000000000000000000000000000000000000000000000000000815260040161123890613a98565b60405180910390fd5b60005b848490508110156112c35782828281811061126257611261613ff6565b5b9050602002013560cc60008787858181106112805761127f613ff6565b5b9050602002016020810190611295919061326a565b60ff1660ff1681526020019081526020016000206000018190555080806112bb90613f4f565b915050611244565b5050505050565b60006065600084815260200190815260200160002060000160008373ffffffffffffffffffffffffffffffffffffffff1673ffffffffffffffffffffffffffffffffffffffff16815260200190815260200160002060009054906101000a900460ff16905092915050565b6000801b81565b600060cc60008360ff1660ff1681526020019081526020016000206001015442106113835760cc60008360ff1660ff16815260200190815260200160002060010154611385565b425b9050919050565b600260975414156113d2576040517f08c379a00000000000000000000000000000000000000000000000000000000081526004016113c990613a58565b60405180910390fd5b60026097819055508633600060cc60008460ff1660ff168152602001908152602001600020905061140283610f2f565b81600301819055506114138361133c565b8160040181905550600073ffffffffffffffffffffffffffffffffffffffff168273ffffffffffffffffffffffffffffffffffffffff161461151c57600060ce60008560ff1660ff16815260200190815260200160002060008473ffffffffffffffffffffffffffffffffffffffff1673ffffffffffffffffffffffffffffffffffffffff16815260200190815260200160002090506114b3848461175d565b60cf60008660ff1660ff16815260200190815260200160002060008573ffffffffffffffffffffffffffffffffffffffff1673ffffffffffffffffffffffffffffffffffffffff1681526020019081526020016000208190555081600301548160010181905550505b6000878790508a8a9050116115345787879050611539565b898990505b90506000811161157e576040517f08c379a000000000000000000000000000000000000000000000000000000000815260040161157590613a98565b60405180910390fd5b60008888905011156115d3578585905088889050146115d2576040517f08c379a00000000000000000000000000000000000000000000000000000000081526004016115c990613a98565b60405180910390fd5b5b6000805b8281101561168c578b8b9050811015611620576116128d3360008f8f8681811061160457611603613ff6565b5b9050602002013560016126ff565b8261161d9190613cb8565b91505b898990508110156116795761166b8d3360018d8d8681811061164557611644613ff6565b5b905060200201358c8c8781811061165f5761165e613ff6565b5b905060200201356126ff565b826116769190613cb8565b91505b808061168490613f4f565b9150506115d7565b508060ce60008e60ff1660ff16815260200190815260200160002060003373ffffffffffffffffffffffffffffffffffffffff1673ffffffffffffffffffffffffffffffffffffffff16815260200190815260200160002060000160008282546116f69190613cb8565b925050819055508060cd60008e60ff1660ff16815260200190815260200160002060008282546117269190613cb8565b9250508190555061173933308d8d6121a9565b61174733308b8b8b8b612351565b5050505050600160978190555050505050505050565b60008060ce60008560ff1660ff16815260200190815260200160002060008473ffffffffffffffffffffffffffffffffffffffff1673ffffffffffffffffffffffffffffffffffffffff168152602001908152602001600020905060cf60008560ff1660ff16815260200190815260200160002060008473ffffffffffffffffffffffffffffffffffffffff1673ffffffffffffffffffffffffffffffffffffffff16815260200190815260200160002054670de0b6b3a7640000826001015461182687610f2f565b6118309190613d99565b836000015461183f9190613d3f565b6118499190613d0e565b6118539190613cb8565b91505092915050565b60cf602052816000526040600020602052806000526040600020600091509150505481565b600063bc197c8160e01b9050979650505050505050565b8181905084849050146118e0576040517f08c379a00000000000000000000000000000000000000000000000000000000081526004016118d790613a78565b60405180910390fd5b60008484905011611926576040517f08c379a000000000000000000000000000000000000000000000000000000000815260040161191d90613a98565b60405180910390fd5b60005b848490508110156119945782828281811061194757611946613ff6565b5b9050602002013560d0600087878581811061196557611964613ff6565b5b90506020020135815260200190815260200160002060020181905550808061198c90613f4f565b915050611929565b5050505050565b600060019054906101000a900460ff166119c35760008054906101000a900460ff16156119cc565b6119cb612950565b5b611a0b576040517f08c379a0000000000000000000000000000000000000000000000000000000008152600401611a02906139b8565b60405180910390fd5b60008060019054906101000a900460ff161590508015611a5b576001600060016101000a81548160ff02191690831515021790555060016000806101000a81548160ff0219169083151502179055505b611a63612961565b611a6b6129b2565b611a786000801b33612a0b565b8260c960006101000a81548173ffffffffffffffffffffffffffffffffffffffff021916908373ffffffffffffffffffffffffffffffffffffffff1602179055508160ca60006101000a81548173ffffffffffffffffffffffffffffffffffffffff021916908373ffffffffffffffffffffffffffffffffffffffff1602179055508360cb60006101000a81548173ffffffffffffffffffffffffffffffffffffffff021916908373ffffffffffffffffffffffffffffffffffffffff16021790555062278d0060cc6000600160ff16815260200190815260200160002060000181905550624f1a0060cc6000600260ff168152602001908152602001600020600001819055506276a70060cc6000600360ff168152602001908152602001600020600001819055508015611bc25760008060016101000a81548160ff0219169083151502179055505b50505050565b60d06020528060005260406000206000915090508060000154908060010160009054906101000a900473ffffffffffffffffffffffffffffffffffffffff16908060020154905083565b611c1b8261071f565b611c2c81611c27611cf0565b611cf8565b611c368383611e76565b505050565b60cc6020528060005260406000206000915090508060000154908060010154908060020154908060030154908060040154905085565b600063f23a6e6160e01b905095945050505050565b60007f01ffc9a7000000000000000000000000000000000000000000000000000000007bffffffffffffffffffffffffffffffffffffffffffffffffffffffff1916827bffffffffffffffffffffffffffffffffffffffffffffffffffffffff1916149050919050565b600033905090565b611d0282826112ca565b611d9157611d278173ffffffffffffffffffffffffffffffffffffffff166014612a19565b611d358360001c6020612a19565b604051602001611d46929190613779565b6040516020818303038152906040526040517f08c379a0000000000000000000000000000000000000000000000000000000008152600401611d8891906138f6565b60405180910390fd5b5050565b611d9f82826112ca565b611e725760016065600084815260200190815260200160002060000160008373ffffffffffffffffffffffffffffffffffffffff1673ffffffffffffffffffffffffffffffffffffffff16815260200190815260200160002060006101000a81548160ff021916908315150217905550611e17611cf0565b73ffffffffffffffffffffffffffffffffffffffff168173ffffffffffffffffffffffffffffffffffffffff16837f2f8788117e7eff1d82e926ec794901d17c78024a50270940304540a733656f0d60405160405180910390a45b5050565b611e8082826112ca565b15611f545760006065600084815260200190815260200160002060000160008373ffffffffffffffffffffffffffffffffffffffff1673ffffffffffffffffffffffffffffffffffffffff16815260200190815260200160002060006101000a81548160ff021916908315150217905550611ef9611cf0565b73ffffffffffffffffffffffffffffffffffffffff168173ffffffffffffffffffffffffffffffffffffffff16837ff6391f5c32d9c69d2a47ea670b442974b53935d1edc7fd64eb21e047a839171b60405160405180910390a45b5050565b60008060d0600085815260200190815260200160002090506000816002015411611fb7576040517f08c379a0000000000000000000000000000000000000000000000000000000008152600401611fae90613958565b60405180910390fd5b8660ff16816000015414612000576040517f08c379a0000000000000000000000000000000000000000000000000000000008152600401611ff790613998565b60405180910390fd5b8573ffffffffffffffffffffffffffffffffffffffff168160010160009054906101000a900473ffffffffffffffffffffffffffffffffffffffff1673ffffffffffffffffffffffffffffffffffffffff1614612092576040517f08c379a0000000000000000000000000000000000000000000000000000000008152600401612089906139d8565b60405180910390fd5b6000816000018190555060008160010160006101000a81548173ffffffffffffffffffffffffffffffffffffffff021916908373ffffffffffffffffffffffffffffffffffffffff16021790555084612141578660ff163373ffffffffffffffffffffffffffffffffffffffff167f2c99cd47e9e03c6a2dbdf93a6d0f387d972aae28cc1e36948bdd85c7c8e9cafb8660018960405161213493929190613b2a565b60405180910390a3612198565b8660ff163373ffffffffffffffffffffffffffffffffffffffff167f2c99cd47e9e03c6a2dbdf93a6d0f387d972aae28cc1e36948bdd85c7c8e9cafb86868960405161218f93929190613b8a565b60405180910390a35b806002015491505095945050505050565b60008282905014156121ba5761234b565b60005b828290508110156123495760008060c960009054906101000a900473ffffffffffffffffffffffffffffffffffffffff1673ffffffffffffffffffffffffffffffffffffffff166342842e0e888888888881811061221e5761221d613ff6565b5b9050602002013560405160240161223793929190613838565b6040516020818303038152906040529060e01b6020820180517bffffffffffffffffffffffffffffffffffffffffffffffffffffffff83818316178352505050506040516122859190613762565b6000604051808303816000865af19150503d80600081146122c2576040519150601f19603f3d011682016040523d82523d6000602084013e6122c7565b606091505b50915091508180156122f557506000815114806122f45750808060200190518101906122f39190613176565b5b5b612334576040517f08c379a000000000000000000000000000000000000000000000000000000000815260040161232b90613a38565b60405180910390fd5b5050808061234190613f4f565b9150506121bd565b505b50505050565b6000848490501415612362576124be565b60008060ca60009054906101000a900473ffffffffffffffffffffffffffffffffffffffff1673ffffffffffffffffffffffffffffffffffffffff16632eb2c2d68989898989896040516024016123be969594939291906137ce565b6040516020818303038152906040529060e01b6020820180517bffffffffffffffffffffffffffffffffffffffffffffffffffffffff838183161783525050505060405161240c9190613762565b6000604051808303816000865af19150503d8060008114612449576040519150601f19603f3d011682016040523d82523d6000602084013e61244e565b606091505b509150915081801561247c575060008151148061247b57508080602001905181019061247a9190613176565b5b5b6124bb576040517f08c379a00000000000000000000000000000000000000000000000000000000081526004016124b290613a38565b60405180910390fd5b50505b505050505050565b8160008060cc60008460ff1660ff16815260200190815260200160002090506124ee83610f2f565b81600301819055506124ff8361133c565b8160040181905550600073ffffffffffffffffffffffffffffffffffffffff168273ffffffffffffffffffffffffffffffffffffffff161461260857600060ce60008560ff1660ff16815260200190815260200160002060008473ffffffffffffffffffffffffffffffffffffffff1673ffffffffffffffffffffffffffffffffffffffff168152602001908152602001600020905061259f848461175d565b60cf60008660ff1660ff16815260200190815260200160002060008573ffffffffffffffffffffffffffffffffffffffff1673ffffffffffffffffffffffffffffffffffffffff1681526020019081526020016000208190555081600301548160010181905550505b600060cc60008760ff1660ff16815260200190815260200160002090508060010154421061264d578060000154856126409190613d0e565b816002018190555061269b565b600042826001015461265f9190613d99565b905060008260020154826126739190613d3f565b90508260000154816126859190613d0e565b876126909190613cb8565b836002018190555050505b4281600401819055508060000154426126b49190613cb8565b81600101819055508560ff167f406a05ea037fb7046345ab4216653f82847e4f5d0307d115f620041c8593dd7c866040516126ef9190613ad8565b60405180910390a2505050505050565b60008060d060008581526020019081526020016000209050600081600201541161275e576040517f08c379a000000000000000000000000000000000000000000000000000000000815260040161275590613958565b60405180910390fd5b60008160000154146127a5576040517f08c379a000000000000000000000000000000000000000000000000000000000815260040161279c90613938565b60405180910390fd5b600073ffffffffffffffffffffffffffffffffffffffff168160010160009054906101000a900473ffffffffffffffffffffffffffffffffffffffff1673ffffffffffffffffffffffffffffffffffffffff1614612838576040517f08c379a000000000000000000000000000000000000000000000000000000000815260040161282f90613938565b60405180910390fd5b8660ff168160000181905550858160010160006101000a81548173ffffffffffffffffffffffffffffffffffffffff021916908373ffffffffffffffffffffffffffffffffffffffff160217905550846128e8578660ff163373ffffffffffffffffffffffffffffffffffffffff167f221ca413d8d18e65c5599f7daf24b39184fc90c306a03646abb69535a482d4b0866001896040516128db93929190613b2a565b60405180910390a361293f565b8660ff163373ffffffffffffffffffffffffffffffffffffffff167f221ca413d8d18e65c5599f7daf24b39184fc90c306a03646abb69535a482d4b086868960405161293693929190613b8a565b60405180910390a35b806002015491505095945050505050565b600061295b30612c55565b15905090565b600060019054906101000a900460ff166129b0576040517f08c379a00000000000000000000000000000000000000000000000000000000081526004016129a790613a18565b60405180910390fd5b565b600060019054906101000a900460ff16612a01576040517f08c379a00000000000000000000000000000000000000000000000000000000081526004016129f890613a18565b60405180910390fd5b6001609781905550565b612a158282611d95565b5050565b606060006002836002612a2c9190613d3f565b612a369190613cb8565b67ffffffffffffffff811115612a4f57612a4e614025565b5b6040519080825280601f01601f191660200182016040528015612a815781602001600182028036833780820191505090505b5090507f300000000000000000000000000000000000000000000000000000000000000081600081518110612ab957612ab8613ff6565b5b60200101907effffffffffffffffffffffffffffffffffffffffffffffffffffffffffffff1916908160001a9053507f780000000000000000000000000000000000000000000000000000000000000081600181518110612b1d57612b1c613ff6565b5b60200101907effffffffffffffffffffffffffffffffffffffffffffffffffffffffffffff1916908160001a90535060006001846002612b5d9190613d3f565b612b679190613cb8565b90505b6001811115612c07577f3031323334353637383961626364656600000000000000000000000000000000600f861660108110612ba957612ba8613ff6565b5b1a60f81b828281518110612bc057612bbf613ff6565b5b60200101907effffffffffffffffffffffffffffffffffffffffffffffffffffffffffffff1916908160001a905350600485901c945080612c0090613ef4565b9050612b6a565b5060008414612c4b576040517f08c379a0000000000000000000000000000000000000000000000000000000008152600401612c4290613918565b60405180910390fd5b8091505092915050565b600080823b905060008111915050919050565b6000612c7b612c7684613c39565b613c14565b905082815260208101848484011115612c9757612c96614063565b5b612ca2848285613eb2565b509392505050565b600081359050612cb981614425565b92915050565b60008083601f840112612cd557612cd4614059565b5b8235905067ffffffffffffffff811115612cf257612cf1614054565b5b602083019150836020820283011115612d0e57612d0d61405e565b5b9250929050565b60008083601f840112612d2b57612d2a614059565b5b8235905067ffffffffffffffff811115612d4857612d47614054565b5b602083019150836020820283011115612d6457612d6361405e565b5b9250929050565b600081519050612d7a8161443c565b92915050565b600081359050612d8f81614453565b92915050565b600081359050612da48161446a565b92915050565b600082601f830112612dbf57612dbe614059565b5b8135612dcf848260208601612c68565b91505092915050565b600081359050612de781614481565b92915050565b600081359050612dfc81614498565b92915050565b600060208284031215612e1857612e17614072565b5b6000612e2684828501612caa565b91505092915050565b600080600060608486031215612e4857612e47614072565b5b6000612e5686828701612caa565b9350506020612e6786828701612caa565b9250506040612e7886828701612caa565b9150509250925092565b600080600080600080600060a0888a031215612ea157612ea0614072565b5b6000612eaf8a828b01612caa565b9750506020612ec08a828b01612caa565b965050604088013567ffffffffffffffff811115612ee157612ee0614068565b5b612eed8a828b01612cbf565b9550955050606088013567ffffffffffffffff811115612f1057612f0f614068565b5b612f1c8a828b01612cbf565b9350935050608088013567ffffffffffffffff811115612f3f57612f3e614068565b5b612f4b8a828b01612daa565b91505092959891949750929550565b60008060008060808587031215612f7457612f73614072565b5b6000612f8287828801612caa565b9450506020612f9387828801612caa565b9350506040612fa487828801612dd8565b925050606085013567ffffffffffffffff811115612fc557612fc4614068565b5b612fd187828801612daa565b91505092959194509250565b600080600080600060a08688031215612ff957612ff8614072565b5b600061300788828901612caa565b955050602061301888828901612caa565b945050604061302988828901612dd8565b935050606061303a88828901612dd8565b925050608086013567ffffffffffffffff81111561305b5761305a614068565b5b61306788828901612daa565b9150509295509295909350565b6000806000806040858703121561308e5761308d614072565b5b600085013567ffffffffffffffff8111156130ac576130ab614068565b5b6130b887828801612cbf565b9450945050602085013567ffffffffffffffff8111156130db576130da614068565b5b6130e787828801612cbf565b925092505092959194509250565b6000806000806040858703121561310f5761310e614072565b5b600085013567ffffffffffffffff81111561312d5761312c614068565b5b61313987828801612d15565b9450945050602085013567ffffffffffffffff81111561315c5761315b614068565b5b61316887828801612cbf565b925092505092959194509250565b60006020828403121561318c5761318b614072565b5b600061319a84828501612d6b565b91505092915050565b6000602082840312156131b9576131b8614072565b5b60006131c784828501612d80565b91505092915050565b600080604083850312156131e7576131e6614072565b5b60006131f585828601612d80565b925050602061320685828601612caa565b9150509250929050565b60006020828403121561322657613225614072565b5b600061323484828501612d95565b91505092915050565b60006020828403121561325357613252614072565b5b600061326184828501612dd8565b91505092915050565b6000602082840312156132805761327f614072565b5b600061328e84828501612ded565b91505092915050565b600080604083850312156132ae576132ad614072565b5b60006132bc85828601612ded565b92505060206132cd85828601612caa565b9150509250929050565b60008060008060008060006080888a0312156132f6576132f5614072565b5b60006133048a828b01612ded565b975050602088013567ffffffffffffffff81111561332557613324614068565b5b6133318a828b01612cbf565b9650965050604088013567ffffffffffffffff81111561335457613353614068565b5b6133608a828b01612cbf565b9450945050606088013567ffffffffffffffff81111561338357613382614068565b5b61338f8a828b01612cbf565b925092505092959891949750929550565b6133a981613dcd565b82525050565b60006133bb8385613c80565b93507f07ffffffffffffffffffffffffffffffffffffffffffffffffffffffffffffff8311156133ee576133ed61406d565b5b6020830292506133ff838584613eb2565b82840190509392505050565b61341481613ddf565b82525050565b61342381613deb565b82525050565b61343281613df5565b82525050565b600061344382613c6a565b61344d8185613c91565b935061345d818560208601613ec1565b80840191505092915050565b61347281613e58565b82525050565b61348181613e7c565b82525050565b61349081613ea0565b82525050565b60006134a182613c75565b6134ab8185613c9c565b93506134bb818560208601613ec1565b6134c481614077565b840191505092915050565b60006134da82613c75565b6134e48185613cad565b93506134f4818560208601613ec1565b80840191505092915050565b600061350d602083613c9c565b915061351882614088565b602082019050919050565b6000613530601a83613c9c565b915061353b826140b1565b602082019050919050565b6000613553601e83613c9c565b915061355e826140da565b602082019050919050565b6000613576602383613c9c565b915061358182614103565b604082019050919050565b6000613599602283613c9c565b91506135a482614152565b604082019050919050565b60006135bc602e83613c9c565b91506135c7826141a1565b604082019050919050565b60006135df601f83613c9c565b91506135ea826141f0565b602082019050919050565b6000613602600083613c9c565b915061360d82614219565b600082019050919050565b6000613625601483613c9c565b91506136308261421c565b602082019050919050565b6000613648602b83613c9c565b915061365382614245565b604082019050919050565b600061366b602583613c9c565b915061367682614294565b604082019050919050565b600061368e601783613cad565b9150613699826142e3565b601782019050919050565b60006136b1601f83613c9c565b91506136bc8261430c565b602082019050919050565b60006136d4602183613c9c565b91506136df82614335565b604082019050919050565b60006136f7601183613cad565b915061370282614384565b601182019050919050565b600061371a602083613c9c565b9150613725826143ad565b602082019050919050565b600061373d602f83613c9c565b9150613748826143d6565b604082019050919050565b61375c81613e41565b82525050565b600061376e8284613438565b915081905092915050565b600061378482613681565b915061379082856134cf565b915061379b826136ea565b91506137a782846134cf565b91508190509392505050565b60006020820190506137c860008301846133a0565b92915050565b600060a0820190506137e360008301896133a0565b6137f060208301886133a0565b81810360408301526138038186886133af565b905081810360608301526138188184866133af565b9050818103608083015261382b816135f5565b9050979650505050505050565b600060608201905061384d60008301866133a0565b61385a60208301856133a0565b6138676040830184613753565b949350505050565b6000602082019050613884600083018461340b565b92915050565b600060208201905061389f600083018461341a565b92915050565b60006020820190506138ba6000830184613429565b92915050565b60006020820190506138d56000830184613469565b92915050565b60006020820190506138f06000830184613478565b92915050565b600060208201905081810360008301526139108184613496565b905092915050565b6000602082019050818103600083015261393181613500565b9050919050565b6000602082019050818103600083015261395181613523565b9050919050565b6000602082019050818103600083015261397181613546565b9050919050565b6000602082019050818103600083015261399181613569565b9050919050565b600060208201905081810360008301526139b18161358c565b9050919050565b600060208201905081810360008301526139d1816135af565b9050919050565b600060208201905081810360008301526139f1816135d2565b9050919050565b60006020820190508181036000830152613a1181613618565b9050919050565b60006020820190508181036000830152613a318161363b565b9050919050565b60006020820190508181036000830152613a518161365e565b9050919050565b60006020820190508181036000830152613a71816136a4565b9050919050565b60006020820190508181036000830152613a91816136c7565b9050919050565b60006020820190508181036000830152613ab18161370d565b9050919050565b60006020820190508181036000830152613ad181613730565b9050919050565b6000602082019050613aed6000830184613753565b92915050565b6000606082019050613b086000830186613753565b613b1560208301856133a0565b613b226040830184613753565b949350505050565b6000606082019050613b3f6000830186613753565b613b4c6020830185613487565b613b59604083018461340b565b949350505050565b6000604082019050613b766000830185613753565b613b836020830184613753565b9392505050565b6000606082019050613b9f6000830186613753565b613bac6020830185613753565b613bb9604083018461340b565b949350505050565b600060a082019050613bd66000830188613753565b613be36020830187613753565b613bf06040830186613753565b613bfd6060830185613753565b613c0a6080830184613753565b9695505050505050565b6000613c1e613c2f565b9050613c2a8282613f1e565b919050565b6000604051905090565b600067ffffffffffffffff821115613c5457613c53614025565b5b613c5d82614077565b9050602081019050919050565b600081519050919050565b600081519050919050565b600082825260208201905092915050565b600081905092915050565b600082825260208201905092915050565b600081905092915050565b6000613cc382613e41565b9150613cce83613e41565b9250827fffffffffffffffffffffffffffffffffffffffffffffffffffffffffffffffff03821115613d0357613d02613f98565b5b828201905092915050565b6000613d1982613e41565b9150613d2483613e41565b925082613d3457613d33613fc7565b5b828204905092915050565b6000613d4a82613e41565b9150613d5583613e41565b9250817fffffffffffffffffffffffffffffffffffffffffffffffffffffffffffffffff0483118215151615613d8e57613d8d613f98565b5b828202905092915050565b6000613da482613e41565b9150613daf83613e41565b925082821015613dc257613dc1613f98565b5b828203905092915050565b6000613dd882613e21565b9050919050565b60008115159050919050565b6000819050919050565b60007fffffffff0000000000000000000000000000000000000000000000000000000082169050919050565b600073ffffffffffffffffffffffffffffffffffffffff82169050919050565b6000819050919050565b600060ff82169050919050565b6000613e6382613e6a565b9050919050565b6000613e7582613e21565b9050919050565b6000613e8782613e8e565b9050919050565b6000613e9982613e21565b9050919050565b6000613eab82613e41565b9050919050565b82818337600083830152505050565b60005b83811015613edf578082015181840152602081019050613ec4565b83811115613eee576000848401525b50505050565b6000613eff82613e41565b91506000821415613f1357613f12613f98565b5b600182039050919050565b613f2782614077565b810181811067ffffffffffffffff82111715613f4657613f45614025565b5b80604052505050565b6000613f5a82613e41565b91507fffffffffffffffffffffffffffffffffffffffffffffffffffffffffffffffff821415613f8d57613f8c613f98565b5b600182019050919050565b7f4e487b7100000000000000000000000000000000000000000000000000000000600052601160045260246000fd5b7f4e487b7100000000000000000000000000000000000000000000000000000000600052601260045260246000fd5b7f4e487b7100000000000000000000000000000000000000000000000000000000600052603260045260246000fd5b7f4e487b7100000000000000000000000000000000000000000000000000000000600052604160045260246000fd5b600080fd5b600080fd5b600080fd5b600080fd5b600080fd5b600080fd5b600080fd5b6000601f19601f8301169050919050565b7f537472696e67733a20686578206c656e67746820696e73756666696369656e74600082015250565b7f4476695374616b696e673a20616c7265616479207374616b6564000000000000600082015250565b7f4476695374616b696e673a20696e76616c696420746f6b656e20646174610000600082015250565b7f4476695374616b696e673a206e6f74207265776172647344697374726962757460008201527f696f6e0000000000000000000000000000000000000000000000000000000000602082015250565b7f4476695374616b696e673a20696e76616c696420746f6b656e2063616d70616960008201527f676e000000000000000000000000000000000000000000000000000000000000602082015250565b7f496e697469616c697a61626c653a20636f6e747261637420697320616c72656160008201527f647920696e697469616c697a6564000000000000000000000000000000000000602082015250565b7f4476695374616b696e673a20696e76616c696420746f6b656e206f776e657200600082015250565b50565b7f4476695374616b696e673a206261642074696d65000000000000000000000000600082015250565b7f496e697469616c697a61626c653a20636f6e7472616374206973206e6f74206960008201527f6e697469616c697a696e67000000000000000000000000000000000000000000602082015250565b7f4476695374616b696e673a206261746368207472616e7366657246726f6d206660008201527f61696c6564000000000000000000000000000000000000000000000000000000602082015250565b7f416363657373436f6e74726f6c3a206163636f756e7420000000000000000000600082015250565b7f5265656e7472616e637947756172643a207265656e7472616e742063616c6c00600082015250565b7f4476695374616b696e673a20696e76616c696420706172616d73206c656e677460008201527f6800000000000000000000000000000000000000000000000000000000000000602082015250565b7f206973206d697373696e6720726f6c6520000000000000000000000000000000600082015250565b7f4476695374616b696e673a20696e76616c696420706172616d206c656e677468600082015250565b7f416363657373436f6e74726f6c3a2063616e206f6e6c792072656e6f756e636560008201527f20726f6c657320666f722073656c660000000000000000000000000000000000602082015250565b61442e81613dcd565b811461443957600080fd5b50565b61444581613ddf565b811461445057600080fd5b50565b61445c81613deb565b811461446757600080fd5b50565b61447381613df5565b811461447e57600080fd5b50565b61448a81613e41565b811461449557600080fd5b50565b6144a181613e4b565b81146144ac57600080fd5b5056fea26469706673582212200e85e019e592fe2e1d1dae4118db9ae3a3be181f06a68a6dea31bfb4e659d22064736f6c63430008060033",
  "linkReferences": {},
  "deployedLinkReferences": {}
}